{
  "transactions": [
    {
      "hash": null,
      "transactionType": "CREATE2",
      "contractName": "OracleLib",
      "contractAddress": "0x7c8979a0ab1de970eb24a4b983024a7501e78bc3",
      "function": null,
      "arguments": null,
      "transaction": {
        "from": "0x88f0807bf33b15bdf234fa2c92b469f665881bce",
        "to": "0x4e59b44847b379578588920ca78fbf26c0b4956c",
        "gas": "0x5e140",
        "input": "0x000000000000000000000000000000000000000000000000000000000000000061041261003a600b82828239805160001a60731461002d57634e487b7160e01b600052600060045260246000fd5b30600052607381538281f3fe73000000000000000000000000000000000000000030146080604052600436106100615760003560e01c8063115d30c5146100665780632ba1c96a1461008c57806347096f81146100d65780634a98fd7f146100ec578063f56f48f2146100ff575b600080fd5b610079610074366004610316565b610109565b6040519081526020015b60405180910390f35b61009f61009a366004610316565b61018a565b6040805169ffffffffffffffffffff968716815260208101959095528401929092526060830152909116608082015260a001610083565b6100796100e4366004610316565b506201518090565b61009f6100fa366004610316565b61028e565b6100796201518081565b600080826001600160a01b031663feaf968c6040518163ffffffff1660e01b815260040160a060405180830381865afa15801561014a573d6000803e3d6000fd5b505050506040513d601f19601f8201168201806040525081019061016e9190610365565b5093505050506000814261018291906103b5565b949350505050565b6000806000806000806000806000808a6001600160a01b031663feaf968c6040518163ffffffff1660e01b815260040160a060405180830381865afa1580156101d7573d6000803e3d6000fd5b505050506040513d601f19601f820116820180604052508101906101fb9190610365565b94509450945094509450816000148061022b57508469ffffffffffffffffffff168169ffffffffffffffffffff16105b1561024957604051636250849d60e11b815260040160405180910390fd5b600061025583426103b5565b90506201518081111561027b57604051636250849d60e11b815260040160405180910390fd5b50939a9299509097509550909350915050565b6000806000806000806000806000808a6001600160a01b031663feaf968c6040518163ffffffff1660e01b815260040160a060405180830381865afa1580156102db573d6000803e3d6000fd5b505050506040513d601f19601f820116820180604052508101906102ff9190610365565b939f929e50909c509a509098509650505050505050565b60006020828403121561032857600080fd5b81356001600160a01b038116811461033f57600080fd5b9392505050565b805169ffffffffffffffffffff8116811461036057600080fd5b919050565b600080600080600060a0868803121561037d57600080fd5b61038686610346565b94506020860151935060408601519250606086015191506103a960808701610346565b90509295509295909350565b818103818111156103d657634e487b7160e01b600052601160045260246000fd5b9291505056fea2646970667358221220fa9fb5202d8e4e5f62e0dc4e91b5b7c73753ec12d9c32105de2b02fd91a4d77064736f6c63430008140033",
        "nonce": "0x0",
        "chainId": "0x106a"
      },
      "additionalContracts": [],
      "isFixedGasLimit": false
    },
    {
      "hash": null,
      "transactionType": "CREATE",
      "contractName": "MainRouter",
      "contractAddress": "0x979ccba756d0af02390cbcd039d186935bd8c815",
      "function": null,
      "arguments": [
        "5224473277236331295",
        "0x114A20A10b43D4115e5aeef7345a1A71d2a60C57",
        "0xC17094E3A1348E5C7544D4fF8A36c28f2C6AAE28",
        "0x66756e2d6f7074696d69736d2d7365706f6c69612d3100000000000000000000"
      ],
      "transaction": {
        "from": "0x88f0807bf33b15bdf234fa2c92b469f665881bce",
        "gas": "0x5b5ae8",
        "value": "0x0",
        "input": "0x60c06040526008805463ffffffff60401b19166a0493e00000000000000000179055620493e06016553480156200003557600080fd5b50604051620052663803806200526683398101604081905262000058916200018b565b818185853384826001600160a01b0381166200008f576040516335fdcccd60e21b8152600060048201526024015b60405180910390fd5b6001600160a01b0390811660805290811660a0528116620000c757604051631e4fbdf760e01b81526000600482015260240162000086565b620000d2816200011e565b5050600680546001600160a01b0390941668010000000000000000026001600160e01b03199094166001600160401b03909216919091179290921790915560075550620001ea92505050565b600080546001600160a01b038381166001600160a01b0319831681178455604051919092169283917f8be0079c531659141344cd1fd0a4f28419497f9722a3daafe3b4186f6b6457e09190a35050565b80516001600160a01b03811681146200018657600080fd5b919050565b60008060008060808587031215620001a257600080fd5b84516001600160401b0381168114620001ba57600080fd5b9350620001ca602086016200016e565b9250620001da604086016200016e565b6060959095015193969295505050565b60805160a05161503362000233600039600081816110ee0152613322015260008181610db8015281816113b101528181611a1701528181611c7101526135ec01526150336000f3fe6080604052600436106104ae5760003560e01c80637e72ffa61161026b578063b6c0f0e01161014f578063d83ce949116100c1578063f2be459911610085578063f2be459914610fcf578063f2fde38b14610fe2578063f9ca2b0914611002578063fa39355f14611022578063ff1aea4a14611042578063ff673dbc14610cd257600080fd5b8063d83ce94914610f3c578063db7bf55a14610f51578063de3d9fb714610f71578063e9197efe14610f8f578063f172010d14610faf57600080fd5b8063c6b7ac3c11610113578063c6b7ac3c14610869578063c8ce7b4714610e8f578063ca0880cf14610ebc578063d02641a014610edc578063d1bccf0814610efc578063d348dd5014610f1c57600080fd5b8063b6c0f0e014610ddc578063b79ea77f14610e12578063bc7a778b14610e32578063c26f5b6e14610e52578063c56cc3a014610e7257600080fd5b80639719501f116101e8578063a635b7b3116101ac578063a635b7b314610d2b578063aaf5eb6814610d4b578063ad7ea8aa14610d67578063afa293d414610d87578063b0f479a114610da9578063b5627e4214610d4b57600080fd5b80639719501f14610c7957806399d2545514610cb25780639ace5b8214610cd25780639b8621d514610cf25780639d45ac8914610d0e57600080fd5b80638da5cb5b1161022f5780638da5cb5b14610bea5780638e450f5714610c0857806390a8ae9b14610c2657806391ec998414610c4357806394de0dc814610c6357600080fd5b80637e72ffa614610b225780637f776ade14610b5457806381bf8d3d14610b7457806385572ffb14610b915780638d1f0afa14610bb157600080fd5b8063444810f2116103925780636185328f1161030f5780636a2f9536116102d35780636a2f953614610a575780636aa673db14610a77578063715018a614610aad57806371cbfc9814610ac25780637899225e14610ae257806378ca5de714610b0257600080fd5b80636185328f146109a0578063628c97fc146109c0578063636ce040146109f9578063644f1aa714610a0f578063649a05c114610a4457600080fd5b806354688d2f1161035657806354688d2f146108fe578063554a221c1461091e578063586d25cb1461093e5780635b0918751461095e5780635d9a2c481461098057600080fd5b8063444810f21461086957806344b1aa5e146108895780634b52ffb01461089e5780634d69d946146108be57806352d84c62146108de57600080fd5b80631a93d1c31161042b5780633395a79a116103ef5780633395a79a146107465780633bf333461461076b5780633c96b5ef1461078b5780633d91079b146107ab5780633ed4464b146107fc57806340bf5da41461084957600080fd5b80631a93d1c3146106655780631edebf0b146106975780632031a8b0146106b75780632d682b56146106d7578063326cb917146106f757600080fd5b806309fef9d91161047257806309fef9d9146105ad5780630ca76175146105e3578063137a9acb146106055780631572823c1461062557806318bd43c21461064557600080fd5b806301996e6f146104df57806301f728841461051457806301ffc9a7146105425780630701396e14610562578063077440781461059457600080fd5b366104da5733600090815260156020526040812080543492906104d2908490613da1565b925050819055005b600080fd5b3480156104eb57600080fd5b506104ff6104fa366004613dc9565b611062565b60405190151581526020015b60405180910390f35b34801561052057600080fd5b5061053461052f366004613de6565b61107d565b60405190815260200161050b565b34801561054e57600080fd5b506104ff61055d366004613e08565b6110ad565b34801561056e57600080fd5b50600b546001600160a01b03165b6040516001600160a01b03909116815260200161050b565b3480156105a057600080fd5b506105346402540be40081565b3480156105b957600080fd5b506105346105c8366004613dc9565b6001600160a01b03166000908152600e602052604090205490565b3480156105ef57600080fd5b506106036105fe366004613f3f565b6110e3565b005b34801561061157600080fd5b50610534610620366004613dc9565b611167565b34801561063157600080fd5b50610603610640366004613fe0565b6111af565b34801561065157600080fd5b5061060361066036600461400c565b611215565b34801561067157600080fd5b50600854600160401b900463ffffffff1660405163ffffffff909116815260200161050b565b3480156106a357600080fd5b506106036106b236600461404d565b611253565b3480156106c357600080fd5b506106036106d2366004613dc9565b61127e565b3480156106e357600080fd5b506105346106f2366004613dc9565b6112a8565b34801561070357600080fd5b5061057c61071236600461406a565b6001600160401b039190911660009081526013602090815260408083206001600160a01b0394851684529091529020541690565b34801561075257600080fd5b50600654600160401b90046001600160a01b031661057c565b34801561077757600080fd5b506106036107863660046140a3565b6112da565b34801561079757600080fd5b506105346107a63660046140f4565b61131a565b3480156107b757600080fd5b506104ff6107c636600461406a565b6001600160401b03821660009081526010602090815260408083206001600160a01b038516845290915290205460ff1692915050565b34801561080857600080fd5b50610836610817366004613dc9565b6001600160a01b03166000908152600d602052604090205461ffff1690565b60405161ffff909116815260200161050b565b34801561085557600080fd5b50610603610864366004614125565b611445565b34801561087557600080fd5b50610534610884366004614187565b61155e565b34801561089557600080fd5b50600754610534565b3480156108aa57600080fd5b506106036108b93660046141b5565b611591565b3480156108ca57600080fd5b506105346108d9366004613dc9565b6115c4565b3480156108ea57600080fd5b506106036108f93660046141d3565b611623565b34801561090a57600080fd5b506106036109193660046141f9565b611656565b34801561092a57600080fd5b50610534610939366004614261565b6116a2565b34801561094a57600080fd5b506104ff610959366004613dc9565b6116d8565b34801561096a57600080fd5b506109736116ec565b60405161050b919061427a565b34801561098c57600080fd5b5061060361099b366004613fe0565b61179b565b3480156109ac57600080fd5b506105346109bb3660046142c7565b6117ce565b3480156109cc57600080fd5b506104ff6109db36600461404d565b6001600160401b031660009081526003602052604090205460ff1690565b348015610a0557600080fd5b506105346103e881565b348015610a1b57600080fd5b50610a2f610a2a366004614187565b6117f6565b6040805192835260208301919091520161050b565b610603610a523660046140f4565b611818565b348015610a6357600080fd5b50610534610a723660046142c7565b6118c1565b348015610a8357600080fd5b50610534610a92366004613dc9565b6001600160a01b031660009081526015602052604090205490565b348015610ab957600080fd5b50610603611900565b348015610ace57600080fd5b50610534610add366004613dc9565b611914565b348015610aee57600080fd5b50610603610afd366004613dc9565b611930565b348015610b0e57600080fd5b50610603610b1d366004614261565b61195a565b348015610b2e57600080fd5b506006546001600160401b03165b6040516001600160401b03909116815260200161050b565b348015610b6057600080fd5b50610603610b6f366004614261565b611967565b348015610b8057600080fd5b50610534680410d586a20a4c000081565b348015610b9d57600080fd5b50610603610bac3660046142f3565b611a0c565b348015610bbd57600080fd5b506104ff610bcc36600461404d565b6001600160401b031660009081526004602052604090205460ff1690565b348015610bf657600080fd5b506000546001600160a01b031661057c565b348015610c1457600080fd5b50600c546001600160a01b031661057c565b348015610c3257600080fd5b506105346804563918244f40000081565b348015610c4f57600080fd5b50610534610c5e36600461432d565b611a6b565b348015610c6f57600080fd5b5061083661012c81565b348015610c8557600080fd5b506104ff610c94366004613dc9565b6001600160a01b031660009081526005602052604090205460ff1690565b348015610cbe57600080fd5b50610603610ccd36600461436f565b611af5565b348015610cde57600080fd5b50610534610ced3660046143a3565b611b09565b348015610cfe57600080fd5b506105346753444835ec58000081565b348015610d1a57600080fd5b5061053468056bc75e2d6310000081565b348015610d3757600080fd5b50610603610d463660046143d3565b611b47565b348015610d5757600080fd5b50610534670de0b6b3a764000081565b348015610d7357600080fd5b50610534610d82366004614403565b611bea565b348015610d9357600080fd5b50610d9c611d02565b60405161050b9190614483565b348015610db557600080fd5b507f000000000000000000000000000000000000000000000000000000000000000061057c565b348015610de857600080fd5b5061057c610df7366004614261565b6000908152600960205260409020546001600160a01b031690565b348015610e1e57600080fd5b50610603610e2d366004613dc9565b611d94565b348015610e3e57600080fd5b50610603610e4d366004614496565b611dcd565b348015610e5e57600080fd5b50610534610e6d3660046143a3565b611e13565b348015610e7e57600080fd5b506105346803860e639d8064000081565b348015610e9b57600080fd5b50610eaf610eaa36600461404d565b611e25565b60405161050b9190614523565b348015610ec857600080fd5b50610603610ed7366004614261565b611f16565b348015610ee857600080fd5b50610534610ef7366004613dc9565b611f23565b348015610f0857600080fd5b50610534610f17366004614403565b611feb565b348015610f2857600080fd5b50610603610f3736600461406a565b61216a565b348015610f4857600080fd5b50601654610534565b348015610f5d57600080fd5b50610534610f6c366004614187565b61226b565b348015610f7d57600080fd5b506008546001600160401b0316610b3c565b348015610f9b57600080fd5b50610603610faa366004614564565b6122e0565b348015610fbb57600080fd5b50610a2f610fca366004613dc9565b612325565b610603610fdd366004614403565b612343565b348015610fee57600080fd5b50610603610ffd366004613dc9565b612374565b34801561100e57600080fd5b5061053461101d366004613dc9565b6123af565b34801561102e57600080fd5b5061053461103d3660046145e8565b6123e8565b34801561104e57600080fd5b5061053461105d366004613dc9565b612548565b6000670de0b6b3a7640000611076836112a8565b1192915050565b60008160000361109057506000196110a7565b6110a483836804563918244f4000006118c1565b90505b92915050565b60006001600160e01b031982166385572ffb60e01b14806110a757506001600160e01b031982166301ffc9a760e01b1492915050565b336001600160a01b037f0000000000000000000000000000000000000000000000000000000000000000161461112c5760405163c6829f8360e01b815260040160405180910390fd5b61113783838361259f565b60405183907f85e1543bf2f84fe80c6badbce3648c8539ad1df4d2b3d822938ca0538be727e690600090a2505050565b6001600160a01b0381166000908152600e6020908152604080832054600d90925282205461119c916109399161ffff1661466f565b6110a7906803860e639d80640000613da1565b6111b7612699565b6001600160401b0382166000908152600360205260409020805460ff191682158015919091179091556111fd576111f860016001600160401b0384166126c6565b505050565b6111f860016001600160401b0384166126d2565b5050565b600c5433906001600160a01b0316811461124257604051631eb49d6d60e11b815260040160405180910390fd5b61124d8484846126de565b50505050565b61125b612699565b6008805467ffffffffffffffff19166001600160401b0392909216919091179055565b611286612699565b600c80546001600160a01b0319166001600160a01b0392909216919091179055565b6000806112b483611167565b90506000806112c285612325565b915091506112d18282856117ce565b95945050505050565b600b5433906001600160a01b0316811461130757604051631eb49d6d60e11b815260040160405180910390fd5b6113138585858561276d565b5050505050565b6006546000906001600160401b0380871691160361133a5750600061143d565b604080513360208201526001600160a01b038516818301526060808201859052825180830390910181526080820190925260009161137d9183919060a001614698565b6040516020818303038152906040529050600061139f86836000601654612819565b6040516320487ded60e01b81529091507f0000000000000000000000000000000000000000000000000000000000000000906000906001600160a01b038316906320487ded906113f5908c9087906004016146cf565b602060405180830381865afa158015611412573d6000803e3d6000fd5b505050506040513d601f19601f8201168201806040525081019061143691906147a8565b9450505050505b949350505050565b61144d612699565b6001600160401b03841660009081526010602090815260408083206001600160a01b038716845290915290205460ff16156114a8578383604051635b764d5760e01b815260040161149f9291906147c1565b60405180910390fd5b6001600160401b03841660008181526010602090815260408083206001600160a01b03881684528252808320805460ff1916600117905592825260119052206114f1908461293b565b506001600160401b039390931660008181526013602090815260408083206001600160a01b0396871680855290835281842080546001600160a01b03191696909716959095179095559181526012825283812092815291905220805460ff191660ff909216919091179055565b6001600160a01b03821660009081526014602090815260408083206001600160401b038516845290915290205492915050565b611599612699565b6001600160a01b03919091166000908152600560205260409020805460ff1916911515919091179055565b60006001816115d282612950565b905060005b8161ffff1681101561161b5760006115ef848361295a565b90506115fb868261155e565b6116059086613da1565b9450508080611613906147e3565b9150506115d7565b505050919050565b61162b612699565b6008805463ffffffff909216600160401b026bffffffff000000000000000019909216919091179055565b600c5433906001600160a01b0316811461168357604051631eb49d6d60e11b815260040160405180910390fd5b61168e8686866126de565b61169a83838887612966565b505050505050565b60006103e8826116c46803860e639d80640000680410d586a20a4c000061466f565b6116ce91906147fc565b6110a79190614829565b6000670de0b6b3a764000061107683611914565b606060006116fa6001612950565b90506000816001600160401b0381111561171657611716613e32565b60405190808252806020026020018201604052801561173f578160200160208202803683370190505b50905060005b828110156117945761175860018261295a565b82828151811061176a5761176a61483d565b6001600160401b03909216602092830291909101909101528061178c816147e3565b915050611745565b5092915050565b6117a3612699565b6001600160401b03919091166000908152600460205260409020805460ff1916911515919091179055565b6000826000036117e157506000196117ef565b6117ec8484846118c1565b90505b9392505050565b600080611803848461226b565b915061180f848461155e565b90509250929050565b6001600160401b03841660009081526010602090815260408083206001600160a01b03861684529091529020548490839060ff1661186d57818160405163b34279bf60e01b815260040161149f9291906147c1565b8260000361188e5760405163532c969f60e11b815260040160405180910390fd5b33600090815260156020526040812080543492906118ad908490613da1565b9091555061169a9050868686863380612ac9565b600068056bc75e2d631000006118d783866147fc565b6118e19190614829565b9050826118f6670de0b6b3a7640000836147fc565b6117ec9190614829565b611908612699565b6119126000612c58565b565b600080600061192284612325565b9150915061143d828261107d565b611938612699565b600b80546001600160a01b0319166001600160a01b0392909216919091179055565b611962612699565b600755565b336000908152601560205260409020548111156119bb5760405162461bcd60e51b81526020600482015260126024820152714e6f7420656e6f756768206665652070617960701b604482015260640161149f565b33600090815260156020526040812080548392906119da90849061466f565b9091555050604051339082156108fc029083906000818181858888f19350505050158015611211573d6000803e3d6000fd5b336001600160a01b037f00000000000000000000000000000000000000000000000000000000000000001614611a57576040516335fdcccd60e21b815233600482015260240161149f565b611a68611a6382614909565b612ca8565b50565b600080611a7783611f23565b6001600160401b03851660009081526012602081815260408084206001600160a01b038916855290915290912054919250611ab59160ff16906149b5565b611ac090600a614ab2565b611acf6402540be400836147fc565b611ae1670de0b6b3a7640000886147fc565b611aeb9190614829565b6112d19190614829565b611afd612699565b600a6112118282614b41565b6001600160a01b038084166000908152600f602090815260408083206001600160401b03871684528252808320938516835292905220549392505050565b611b4f612699565b6001600160401b03831660009081526010602090815260408083206001600160a01b03861684529091529020548390839060ff16611ba457818160405163b34279bf60e01b815260040161149f9291906147c1565b50506001600160401b039290921660009081526013602090815260408083206001600160a01b039485168452909152902080546001600160a01b03191691909216179055565b6006546000906001600160401b03808616911603611c0a575060006117ef565b6040805133602082015280820184905281518082038301815260608201909252600091611c3d9160019190608001614698565b60405160208183030381529060405290506000611c5f85836000601654612819565b6040516320487ded60e01b81529091507f0000000000000000000000000000000000000000000000000000000000000000906000906001600160a01b038316906320487ded90611cb5908b9087906004016146cf565b602060405180830381865afa158015611cd2573d6000803e3d6000fd5b505050506040513d601f19601f82011682018060405250810190611cf691906147a8565b98975050505050505050565b6060600a8054611d1190614ac1565b80601f0160208091040260200160405190810160405280929190818152602001828054611d3d90614ac1565b8015611d8a5780601f10611d5f57610100808354040283529160200191611d8a565b820191906000526020600020905b815481529060010190602001808311611d6d57829003601f168201915b5050505050905090565b611d9c612699565b600680546001600160a01b03909216600160401b0268010000000000000000600160e01b0319909216919091179055565b600c5433906001600160a01b03168114611dfa57604051631eb49d6d60e11b815260040160405180910390fd5b611e0988888888888888612f1a565b5050505050505050565b60006117ec8383610f17878787611b09565b6001600160401b038116600090815260116020526040812060609190611e4a90612950565b6001600160401b03811115611e6157611e61613e32565b604051908082528060200260200182016040528015611e8a578160200160208202803683370190505b50905060005b6001600160401b0384166000908152601160205260409020611eb190612950565b811015611794576001600160401b0384166000908152601160205260409020611eda908261295a565b828281518110611eec57611eec61483d565b6001600160a01b039092166020928302919091019091015280611f0e816147e3565b915050611e90565b611f1e612699565b601655565b600080601381611f3460018261295a565b6001600160401b03168152602080820192909252604090810160009081206001600160a01b03878116835293528181205491516315d0e4b560e11b815291909216600482018190529250737c8979a0ab1de970eb24a4b983024a7501e78bc390632ba1c96a9060240160a060405180830381865af4158015611fba573d6000803e3d6000fd5b505050506040513d601f19601f82011682018060405250810190611fde9190614c1a565b5091979650505050505050565b6001600160401b03831660009081526010602090815260408083206001600160a01b03861684529091528120548490849060ff1661204057818160405163b34279bf60e01b815260040161149f9291906147c1565b6001600160401b03861660009081526013602090815260408083206001600160a01b03898116855292528083205490516315d0e4b560e11b81529116600482018190529190737c8979a0ab1de970eb24a4b983024a7501e78bc390632ba1c96a9060240160a060405180830381865af41580156120c1573d6000803e3d6000fd5b505050506040513d601f19601f820116820180604052508101906120e59190614c1a565b5050506001600160401b038a1660009081526012602081815260408084206001600160a01b038e16855290915290912054919350670de0b6b3a764000092506121319160ff16906149b5565b61213c90600a614ab2565b8761214c6402540be400856147fc565b61215691906147fc565b61216091906147fc565b611cf69190614829565b612172612699565b6001600160401b03821660009081526010602090815260408083206001600160a01b03851684529091529020548290829060ff166121c757818160405163b34279bf60e01b815260040161149f9291906147c1565b6001600160401b03841660008181526010602090815260408083206001600160a01b03881684528252808320805460ff19169055928252601190522061220d9084612ff9565b5050506001600160401b0390911660008181526013602090815260408083206001600160a01b0390951680845294825280832080546001600160a01b031916905592825260128152828220938252929092529020805460ff19169055565b6001600160401b03811660009081526011602052604081208161228d82612950565b905060005b8161ffff168110156122d75760006122aa848361295a565b90506122b7878783611e13565b6122c19086613da1565b94505080806122cf906147e3565b915050612292565b50505092915050565b600b5433906001600160a01b0316811461230d57604051631eb49d6d60e11b815260040160405180910390fd5b6123198888888861276d565b611e0984848a85612966565b60008061233183612548565b915061233c836115c4565b9050915091565b3360009081526015602052604081208054349290612362908490613da1565b909155506111f8905083833384612966565b61237c612699565b6001600160a01b0381166123a657604051631e4fbdf760e01b81526000600482015260240161149f565b611a6881612c58565b6000806123bb83611167565b905060006123c884612548565b905068056bc75e2d631000006123de83836147fc565b61143d9190614829565b600061242b6040805160e0810190915280600081526020016000815260200160008152602001606081526020016060815260200160608152602001606081525090565b6124c8600a805461243b90614ac1565b80601f016020809104026020016040519081016040528092919081815260200182805461246790614ac1565b80156124b45780601f10612489576101008083540402835291602001916124b4565b820191906000526020600020905b81548152906001019060200180831161249757829003601f168201915b50505050508261300e90919063ffffffff16565b82156124e2576124e26124db8486614c6a565b829061301b565b6125126124ee82613045565b6008546007546001600160401b03821691600160401b900463ffffffff169061331d565b600081815260096020526040902080546001600160a01b0319166001600160a01b03979097169690961790955550929392505050565b600060018161255682612950565b905060005b8161ffff1681101561161b576000612573848361295a565b905061257f868261226b565b6125899086613da1565b9450508080612597906147e3565b91505061255b565b60008381526009602052604081205483516001600160a01b039091169190156125ce576125cb84614cdd565b90505b61ffff811615612600576001600160a01b0382166000908152600d60205260409020805461ffff191661ffff83161790555b6001600160a01b0382166000908152600d602052604081205461ffff169003612649576001600160a01b0382166000908152600d60205260409020805461ffff191661012c1790555b8061ffff1685836001600160a01b03167f403bdb10ed8dc83f54ba14d3110235f19bfe4f00550a91eda66c81c9c47c9efe878760405161268a929190614d01565b60405180910390a45050505050565b6000546001600160a01b031633146119125760405163118cdaa760e01b815233600482015260240161149f565b60006110a483836133ef565b60006110a4838361343e565b6001600160a01b03831660009081526014602090815260408083206001600160401b03861684529091528120805483929061271a90849061466f565b90915550506040518181526001600160401b038316906001600160a01b038516907ffc9381a94a7dfa48ef1e0101b90a651637dc1dde1dfc766ae2e94db9193814489060200160405180910390a3505050565b6001600160a01b038085166000908152600f602090815260408083206001600160401b03881684528252808320938616835292905290812080548392906127b5908490613da1565b92505081905550816001600160a01b0316836001600160401b0316856001600160a01b03167fa61751a812949bef861391695e3c0ff1e7d4a33cb2afd76e49d1ce2feef41bc98460405161280b91815260200190565b60405180910390a450505050565b6128546040518060a0016040528060608152602001606081526020016060815260200160006001600160a01b03168152602001606081525090565b6040805160a081019091526001600160a01b03861660c08201528060e0810160408051808303601f1901815291815290825260208083018890528151600080825291810183529290910191906128cc565b60408051808201909152600080825260208201528152602001906001900390816128a55790505b508152602001846001600160a01b0316815260200161293060405180602001604052808681525060408051915160248084019190915281518084039091018152604490920190526020810180516001600160e01b03166397a657c960e01b17905290565b905295945050505050565b60006110a4836001600160a01b0384166133ef565b60006110a7825490565b60006110a48383613531565b806000036129875760405163532c969f60e11b815260040160405180910390fd5b6001600160a01b03821660009081526014602090815260408083206001600160401b0388168452909152812080548392906129c3908490613da1565b909155506129d2905082611062565b6129ef57604051635296a20960e11b815260040160405180910390fd5b6006546001600160401b03808616911603612a6b576040516340c10f1960e01b81526001600160a01b038381166004830152602482018390528416906340c10f1990604401600060405180830381600087803b158015612a4e57600080fd5b505af1158015612a62573d6000803e3d6000fd5b5050505061124d565b604080516001600160a01b038416602082015280820183905281518082038301815260608201909252600091612aa79160019190608001614698565b604051602081830303815290604052905061169a83868660016000878761355b565b82600003612aea5760405163532c969f60e11b815260040160405180910390fd5b6001600160a01b038083166000908152600f602090815260408083206001600160401b038b168452825280832093881683529290529081208054859290612b3290849061466f565b90915550612b419050826116d8565b612b5e5760405163317416e560e11b815260040160405180910390fd5b6006546001600160401b03808816911603612bea576040516302e80dad60e61b81526001600160a01b038381166004830152828116602483015285811660448301526064820185905286169063ba036b4090608401600060405180830381600087803b158015612bcd57600080fd5b505af1158015612be1573d6000803e3d6000fd5b5050505061169a565b604080516001600160a01b038481166020830152838116828401528616606082015260808082018690528251808303909101815260a08201909252600091612c379183919060c001614698565b6040516020818303038152906040529050611e09828888600089898761355b565b600080546001600160a01b038381166001600160a01b0319831681178455604051919092169283917f8be0079c531659141344cd1fd0a4f28419497f9722a3daafe3b4186f6b6457e09190a35050565b80602001518160400151806020019051810190612cc59190614d26565b6001600160401b03821660009081526004602052604090205460ff16612d09576040516326bfad9160e21b81526001600160401b038316600482015260240161149f565b6001600160a01b03811660009081526005602052604090205460ff16612d4d576040516338c08ef960e11b81526001600160a01b038216600482015260240161149f565b6000808460600151806020019051810190612d689190614d43565b602087015191935091506000836004811115612d8657612d86614682565b03612dbe57600080600084806020019051810190612da49190614dd3565b925092509250612db68385848461276d565b50505061169a565b6001836004811115612dd257612dd2614682565b03612e045760008083806020019051810190612dee9190614e16565b91509150612dfd8284836126de565b505061169a565b6002836004811115612e1857612e18614682565b03612e695760008060008060008087806020019051810190612e3a9190614e44565b955095509550955095509550612e528688878761276d565b612e5e83838884612966565b50505050505061169a565b6003836004811115612e7d57612e7d614682565b03612ebb5760008060008085806020019051810190612e9c9190614eb7565b9350935093509350612eaf8486856126de565b612be182828686612966565b6004836004811115612ecf57612ecf614682565b0361169a5760008060008060008087806020019051810190612ef19190614f01565b955095509550955095509550612f0c87878787878787612f1a565b505050505050505050505050565b6000612f2587611914565b9050670de0b6b3a7640000811115612f4f5760405162c8277d60e31b815260040160405180910390fd5b612f5a8789856126de565b600068056bc75e2d63100000612f786753444835ec580000866147fc565b612f829190614829565b612f8c9085613da1565b6001600160a01b03808a166000908152600f602090815260408083206001600160401b038c1684528252808320938c1683529290529081205491925090612fdd90612fd8848a8c611a6b565b613861565b9050612fed87878a848d89612ac9565b50505050505050505050565b60006110a4836001600160a01b03841661343e565b6112118260008084613878565b805160000361303d5760405163fe936cb760e01b815260040160405180910390fd5b60a090910152565b606060006130546101006138f6565b905061308d6040518060400160405280600c81526020016b31b7b232a637b1b0ba34b7b760a11b8152508261391790919063ffffffff16565b82516130ab9060028111156130a4576130a4614682565b8290613930565b6040805180820190915260088152676c616e677561676560c01b60208201526130d5908290613917565b60408301516130ec9080156130a4576130a4614682565b604080518082019091526006815265736f7572636560d01b6020820152613114908290613917565b6060830151613124908290613917565b60a083015151156131b8576040805180820190915260048152636172677360e01b6020820152613155908290613917565b61315e81613969565b60005b8360a00151518110156131ae5761319e8460a0015182815181106131875761318761483d565b60200260200101518361391790919063ffffffff16565b6131a7816147e3565b9050613161565b506131b88161398d565b6080830151511561327c576000836020015160028111156131db576131db614682565b036131f95760405163a80d31f760e01b815260040160405180910390fd5b60408051808201909152600f81526e39b2b1b932ba39a637b1b0ba34b7b760891b602082015261322a908290613917565b613243836020015160028111156130a4576130a4614682565b6040805180820190915260078152667365637265747360c81b602082015261326c908290613917565b608083015161327c9082906139ab565b60c083015151156133155760408051808201909152600981526862797465734172677360b81b60208201526132b2908290613917565b6132bb81613969565b60005b8360c001515181101561330b576132fb8460c0015182815181106132e4576132e461483d565b6020026020010151836139ab90919063ffffffff16565b613304816147e3565b90506132be565b506133158161398d565b515192915050565b6000807f00000000000000000000000000000000000000000000000000000000000000006001600160a01b031663461d27628688600188886040518663ffffffff1660e01b8152600401613375959493929190614f7e565b6020604051808303816000875af1158015613394573d6000803e3d6000fd5b505050506040513d601f19601f820116820180604052508101906133b891906147a8565b60405190915081907f1131472297a800fee664d1d89cfa8f7676ff07189ecc53f80bbb5f4969099db890600090a295945050505050565b6000818152600183016020526040812054613436575081546001818101845560008481526020808220909301849055845484825282860190935260409020919091556110a7565b5060006110a7565b6000818152600183016020526040812054801561352757600061346260018361466f565b85549091506000906134769060019061466f565b90508082146134db5760008660000182815481106134965761349661483d565b90600052602060002001549050808760000184815481106134b9576134b961483d565b6000918252602080832090910192909255918252600188019052604090208390555b85548690806134ec576134ec614fc7565b6001900381819060005260206000200160009055905585600101600086815260200190815260200160002060009055600193505050506110a7565b60009150506110a7565b60008260000182815481106135485761354861483d565b9060005260206000200154905092915050565b6001600160401b038616600090815260036020526040812054879060ff166135a157604051630a503cdb60e01b81526001600160401b038216600482015260240161149f565b866001600160a01b0381166135c95760405163502ffa3f60e11b815260040160405180910390fd5b60006135da89866000601654612819565b6040516320487ded60e01b81529091507f0000000000000000000000000000000000000000000000000000000000000000906000906001600160a01b038316906320487ded90613630908f9087906004016146cf565b602060405180830381865afa15801561364d573d6000803e3d6000fd5b505050506040513d601f19601f8201168201806040525081019061367191906147a8565b6001600160a01b038e166000908152601560205260409020549091508111156136d2576001600160a01b038d166000908152601560205260409081902054905163d44547cd60e01b815260048101919091526024810182905260440161149f565b6001600160a01b038d16600090815260156020526040812080548392906136fa90849061466f565b92505081905550816001600160a01b03166396f4e9f9828e866040518463ffffffff1660e01b81526004016137309291906146cf565b60206040518083038185885af115801561374e573d6000803e3d6000fd5b50505050506040513d601f19601f8201168201806040525081019061377391906147a8565b955060008a600181111561378957613789614682565b036137ea57886001600160a01b03168c6001600160401b03168e6001600160a01b03167fa4a5196b9663ea82d0c7a1554b5b9cb8d7aa3bf0a56e43a0abd169e47cb817ef8b6040516137dd91815260200190565b60405180910390a4613851565b60018a60018111156137fe576137fe614682565b03613851578b6001600160401b03168d6001600160a01b03167fbee4f42ec19ab812d347ca0b11a0e518e9f4d1c671f7f4df8b093f2bd5dea0df8a60405161384891815260200190565b60405180910390a35b5050505050979650505050505050565b60008183111561387157816110a4565b5090919050565b805160000361389a576040516322ce3edd60e01b815260040160405180910390fd5b838360028111156138ad576138ad614682565b908160028111156138c0576138c0614682565b905250604084018280156138d6576138d6614682565b908180156138e6576138e6614682565b9052506060909301929092525050565b6138fe613d56565b805161390a90836139b8565b5060006020820152919050565b6139248260038351613a2f565b81516111f89082613b48565b815161393d9060c2613b69565b50611211828260405160200161395591815260200190565b6040516020818303038152906040526139ab565b613974816004613bd2565b6001816020018181516139879190613da1565b90525050565b613998816007613bd2565b600181602001818151613987919061466f565b6139248260028351613a2f565b6040805180820190915260608152600060208201526139d8602083614fdd565b15613a00576139e8602083614fdd565b6139f390602061466f565b6139fd9083613da1565b91505b602080840183905260405180855260008152908184010181811015613a2457600080fd5b604052509192915050565b6017816001600160401b031611613a5557825161124d9060e0600585901b168317613b69565b60ff816001600160401b031611613a95578251613a7d906018611fe0600586901b1617613b69565b50825161124d906001600160401b0383166001613be9565b61ffff816001600160401b031611613ad6578251613abe906019611fe0600586901b1617613b69565b50825161124d906001600160401b0383166002613be9565b63ffffffff816001600160401b031611613b19578251613b0190601a611fe0600586901b1617613b69565b50825161124d906001600160401b0383166004613be9565b8251613b3090601b611fe0600586901b1617613b69565b50825161124d906001600160401b0383166008613be9565b6040805180820190915260608152600060208201526110a483838451613c6e565b6040805180820190915260608152600060208201528251516000613b8e826001613da1565b905084602001518210613baf57613baf85613baa8360026147fc565b613d3f565b8451602083820101858153508051821115613bc8578181525b5093949350505050565b81516111f890601f611fe0600585901b1617613b69565b6040805180820190915260608152600060208201528351516000613c0d8285613da1565b90508560200151811115613c2a57613c2a86613baa8360026147fc565b60006001613c3a86610100614ff1565b613c44919061466f565b90508651828101878319825116178152508051831115613c62578281525b50959695505050505050565b6040805180820190915260608152600060208201528251821115613c9157600080fd5b8351516000613ca08483613da1565b90508560200151811115613cbd57613cbd86613baa8360026147fc565b855180518382016020019160009180851115613cd7578482525b505050602086015b60208610613d175780518252613cf6602083613da1565b9150613d03602082613da1565b9050613d1060208761466f565b9550613cdf565b51815160001960208890036101000a0190811690199190911617905250849150509392505050565b8151613d4b83836139b8565b5061124d8382613b48565b6040518060400160405280613d7e604051806040016040528060608152602001600081525090565b8152602001600081525090565b634e487b7160e01b600052601160045260246000fd5b808201808211156110a7576110a7613d8b565b6001600160a01b0381168114611a6857600080fd5b600060208284031215613ddb57600080fd5b81356117ef81613db4565b60008060408385031215613df957600080fd5b50508035926020909101359150565b600060208284031215613e1a57600080fd5b81356001600160e01b0319811681146117ef57600080fd5b634e487b7160e01b600052604160045260246000fd5b604080519081016001600160401b0381118282101715613e6a57613e6a613e32565b60405290565b60405160a081016001600160401b0381118282101715613e6a57613e6a613e32565b604051601f8201601f191681016001600160401b0381118282101715613eba57613eba613e32565b604052919050565b60006001600160401b03821115613edb57613edb613e32565b50601f01601f191660200190565b600082601f830112613efa57600080fd5b8135613f0d613f0882613ec2565b613e92565b818152846020838601011115613f2257600080fd5b816020850160208301376000918101602001919091529392505050565b600080600060608486031215613f5457600080fd5b8335925060208401356001600160401b0380821115613f7257600080fd5b613f7e87838801613ee9565b93506040860135915080821115613f9457600080fd5b50613fa186828701613ee9565b9150509250925092565b6001600160401b0381168114611a6857600080fd5b8035613fcb81613fab565b919050565b80358015158114613fcb57600080fd5b60008060408385031215613ff357600080fd5b8235613ffe81613fab565b915061180f60208401613fd0565b60008060006060848603121561402157600080fd5b833561402c81613db4565b9250602084013561403c81613fab565b929592945050506040919091013590565b60006020828403121561405f57600080fd5b81356117ef81613fab565b6000806040838503121561407d57600080fd5b823561408881613fab565b9150602083013561409881613db4565b809150509250929050565b600080600080608085870312156140b957600080fd5b84356140c481613db4565b935060208501356140d481613fab565b925060408501356140e481613db4565b9396929550929360600135925050565b6000806000806080858703121561410a57600080fd5b843561411581613fab565b935060208501356140d481613db4565b6000806000806080858703121561413b57600080fd5b843561414681613fab565b9350602085013561415681613db4565b9250604085013561416681613db4565b9150606085013560ff8116811461417c57600080fd5b939692955090935050565b6000806040838503121561419a57600080fd5b82356141a581613db4565b9150602083013561409881613fab565b600080604083850312156141c857600080fd5b8235613ffe81613db4565b6000602082840312156141e557600080fd5b813563ffffffff811681146117ef57600080fd5b600080600080600060a0868803121561421157600080fd5b853561421c81613db4565b9450602086013561422c81613fab565b935060408601359250606086013561424381613fab565b9150608086013561425381613db4565b809150509295509295909350565b60006020828403121561427357600080fd5b5035919050565b6020808252825182820181905260009190848201906040850190845b818110156142bb5783516001600160401b031683529284019291840191600101614296565b50909695505050505050565b6000806000606084860312156142dc57600080fd5b505081359360208301359350604090920135919050565b60006020828403121561430557600080fd5b81356001600160401b0381111561431b57600080fd5b820160a081850312156117ef57600080fd5b60008060006060848603121561434257600080fd5b83359250602084013561435481613fab565b9150604084013561436481613db4565b809150509250925092565b60006020828403121561438157600080fd5b81356001600160401b0381111561439757600080fd5b61143d84828501613ee9565b6000806000606084860312156143b857600080fd5b83356143c381613db4565b9250602084013561435481613fab565b6000806000606084860312156143e857600080fd5b83356143f381613fab565b9250602084013561435481613db4565b60008060006060848603121561441857600080fd5b833561442381613fab565b9250602084013561403c81613db4565b60005b8381101561444e578181015183820152602001614436565b50506000910152565b6000815180845261446f816020860160208601614433565b601f01601f19169290920160200192915050565b6020815260006110a46020830184614457565b600080600080600080600060e0888a0312156144b157600080fd5b87356144bc81613fab565b965060208801356144cc81613db4565b955060408801356144dc81613db4565b945060608801356144ec81613fab565b935060808801356144fc81613db4565b925060a0880135915060c088013561451381613db4565b8091505092959891949750929550565b6020808252825182820181905260009190848201906040850190845b818110156142bb5783516001600160a01b03168352928401929184019160010161453f565b600080600080600080600060e0888a03121561457f57600080fd5b873561458a81613db4565b9650602088013561459a81613fab565b955060408801356145aa81613db4565b94506060880135935060808801356145c181613fab565b925060a08801356145d181613db4565b8092505060c0880135905092959891949750929550565b6000806000604084860312156145fd57600080fd5b833561460881613db4565b925060208401356001600160401b038082111561462457600080fd5b818601915086601f83011261463857600080fd5b81358181111561464757600080fd5b8760208260051b850101111561465c57600080fd5b6020830194508093505050509250925092565b818103818111156110a7576110a7613d8b565b634e487b7160e01b600052602160045260246000fd5b6000600284106146b857634e487b7160e01b600052602160045260246000fd5b838252604060208301526117ec6040830184614457565b600060406001600160401b038516835260208181850152845160a0838601526146fb60e0860182614457565b905081860151603f19808784030160608801526147188383614457565b88860151888203830160808a01528051808352908601945060009350908501905b8084101561476b57845180516001600160a01b0316835286015186830152938501936001939093019290860190614739565b5060608901516001600160a01b031660a08901526080890151888203830160c08a0152955061479a8187614457565b9a9950505050505050505050565b6000602082840312156147ba57600080fd5b5051919050565b6001600160401b039290921682526001600160a01b0316602082015260400190565b6000600182016147f5576147f5613d8b565b5060010190565b80820281158282048414176110a7576110a7613d8b565b634e487b7160e01b600052601260045260246000fd5b60008261483857614838614813565b500490565b634e487b7160e01b600052603260045260246000fd5b60006001600160401b0382111561486c5761486c613e32565b5060051b60200190565b600082601f83011261488757600080fd5b81356020614897613f0883614853565b82815260069290921b840181019181810190868411156148b657600080fd5b8286015b848110156148fe57604081890312156148d35760008081fd5b6148db613e48565b81356148e681613db4565b815281850135858201528352918301916040016148ba565b509695505050505050565b600060a0823603121561491b57600080fd5b614923613e70565b8235815261493360208401613fc0565b602082015260408301356001600160401b038082111561495257600080fd5b61495e36838701613ee9565b6040840152606085013591508082111561497757600080fd5b61498336838701613ee9565b6060840152608085013591508082111561499c57600080fd5b506149a936828601614876565b60808301525092915050565b60ff82811682821603908111156110a7576110a7613d8b565b600181815b80851115614a095781600019048211156149ef576149ef613d8b565b808516156149fc57918102915b93841c93908002906149d3565b509250929050565b600082614a20575060016110a7565b81614a2d575060006110a7565b8160018114614a435760028114614a4d57614a69565b60019150506110a7565b60ff841115614a5e57614a5e613d8b565b50506001821b6110a7565b5060208310610133831016604e8410600b8410161715614a8c575081810a6110a7565b614a9683836149ce565b8060001904821115614aaa57614aaa613d8b565b029392505050565b60006110a460ff841683614a11565b600181811c90821680614ad557607f821691505b602082108103614af557634e487b7160e01b600052602260045260246000fd5b50919050565b601f8211156111f857600081815260208120601f850160051c81016020861015614b225750805b601f850160051c820191505b8181101561169a57828155600101614b2e565b81516001600160401b03811115614b5a57614b5a613e32565b614b6e81614b688454614ac1565b84614afb565b602080601f831160018114614ba35760008415614b8b5750858301515b600019600386901b1c1916600185901b17855561169a565b600085815260208120601f198616915b82811015614bd257888601518255948401946001909101908401614bb3565b5085821015614bf05787850151600019600388901b60f8161c191681555b5050505050600190811b01905550565b805169ffffffffffffffffffff81168114613fcb57600080fd5b600080600080600060a08688031215614c3257600080fd5b614c3b86614c00565b9450602086015193506040860151925060608601519150614c5e60808701614c00565b90509295509295909350565b6000614c78613f0884614853565b80848252602080830192508560051b850136811115614c9657600080fd5b855b81811015614cd15780356001600160401b03811115614cb75760008081fd5b614cc336828a01613ee9565b865250938201938201614c98565b50919695505050505050565b80516020808301519190811015614af55760001960209190910360031b1b16919050565b604081526000614d146040830185614457565b82810360208401526112d18185614457565b600060208284031215614d3857600080fd5b81516117ef81613db4565b60008060408385031215614d5657600080fd5b825160058110614d6557600080fd5b60208401519092506001600160401b03811115614d8157600080fd5b8301601f81018513614d9257600080fd5b8051614da0613f0882613ec2565b818152866020838501011115614db557600080fd5b614dc6826020830160208601614433565b8093505050509250929050565b600080600060608486031215614de857600080fd5b8351614df381613db4565b6020850151909350614e0481613db4565b80925050604084015190509250925092565b60008060408385031215614e2957600080fd5b8251614e3481613db4565b6020939093015192949293505050565b60008060008060008060c08789031215614e5d57600080fd5b8651614e6881613db4565b6020880151909650614e7981613db4565b604088015160608901519196509450614e9181613fab565b6080880151909350614ea281613db4565b8092505060a087015190509295509295509295565b60008060008060808587031215614ecd57600080fd5b8451614ed881613db4565b602086015160408701519195509350614ef081613fab565b606086015190925061417c81613db4565b60008060008060008060c08789031215614f1a57600080fd5b8651614f2581613db4565b6020880151909650614f3681613db4565b6040880151909550614f4781613fab565b6060880151909450614f5881613db4565b608088015160a08901519194509250614f7081613db4565b809150509295509295509295565b6001600160401b038616815260a060208201526000614fa060a0830187614457565b61ffff9590951660408301525063ffffffff92909216606083015260809091015292915050565b634e487b7160e01b600052603160045260246000fd5b600082614fec57614fec614813565b500690565b60006110a48383614a1156fea26469706673582212209aabd3e3224ae01103d8cb297f0d3f531cf28f37feb7fd65750c99df02f885a364736f6c6343000814003300000000000000000000000000000000000000000000000048810ec3e431431f000000000000000000000000114a20a10b43d4115e5aeef7345a1a71d2a60c57000000000000000000000000c17094e3a1348e5c7544d4ff8a36c28f2c6aae2866756e2d6f7074696d69736d2d7365706f6c69612d3100000000000000000000",
        "nonce": "0x1",
        "chainId": "0x106a"
      },
      "additionalContracts": [],
      "isFixedGasLimit": false
    },
    {
      "hash": null,
      "transactionType": "CALL",
      "contractName": "MainRouter",
      "contractAddress": "0x979ccba756d0af02390cbcd039d186935bd8c815",
      "function": "setSubscriptionID(uint64)",
      "arguments": [
        "228"
      ],
      "transaction": {
        "from": "0x88f0807bf33b15bdf234fa2c92b469f665881bce",
        "to": "0x979ccba756d0af02390cbcd039d186935bd8c815",
        "gas": "0x9b73",
        "value": "0x0",
        "input": "0x1edebf0b00000000000000000000000000000000000000000000000000000000000000e4",
        "nonce": "0x2",
        "chainId": "0x106a"
      },
      "additionalContracts": [],
      "isFixedGasLimit": false
    },
    {
      "hash": null,
      "transactionType": "CREATE",
      "contractName": "TokenConfig",
      "contractAddress": "0x93c6300dde76c66360e43b8e04bc7dcd35641944",
      "function": null,
      "arguments": null,
      "transaction": {
        "from": "0x88f0807bf33b15bdf234fa2c92b469f665881bce",
        "gas": "0x2221b6",
        "value": "0x0",
        "input": "0x6080604052600c805462ff00ff19166201000117905534801561002157600080fd5b50611dba806100316000396000f3fe608060405234801561001057600080fd5b50600436106105d25760003560e01c806394944c3711610300578063c43b6b00116101a8578063e24bd1e7116100f4578063f1b09fc1116100ad578063f9b001e011610087578063f9b001e014610e2e578063fa0caf1714610e49578063fc2a53d514610e64578063fcb9a21814610e6c57600080fd5b8063f1b09fc114610df9578063f8ccbf4714610e03578063f8cda8ca14610e2657600080fd5b8063e24bd1e714610d97578063ead9528414610d9f578063ebb252bc14610da8578063ef597f7414610dc3578063f0d9d26014610dde578063f15650c81461070c57600080fd5b8063d043bf9c11610161578063d7a6ead81161013b578063d7a6ead814610d46578063d806acb714610d61578063da960d271461070c578063dc4f238214610d7c57600080fd5b8063d043bf9c14610d10578063d0f4659614610d2b578063d3a5673714610bc257600080fd5b8063c43b6b0014610ca4578063c5720ff814610cbf578063c714ff6f14610683578063cafa15c714610cda578063cb62cfbd1461070c578063cdf686df14610cf557600080fd5b8063a95d644311610267578063b5b3774f11610220578063c0406226116101fa578063c040622614610c72578063c1c154f614610c7a578063c1cbe74914610b50578063c272384814610c8957600080fd5b8063b5b3774f14610c34578063b6085d1c14610c3c578063bfaa4aad14610c5757600080fd5b8063a95d644314610727578063abe914dd14610bdd578063acfaf34d14610bf8578063ad9f2db214610c02578063ae02670914610c0a578063b35a0e5a14610c2557600080fd5b8063a25b465e116102b9578063a25b465e14610b58578063a25bc47914610b73578063a39a92c414610b7d578063a443ae3c14610b98578063a51bbbf014610bb3578063a882305214610bc257600080fd5b806394944c3714610ae457806394c9654514610aff5780639acd72a114610b1a578063a01184ef14610b35578063a117700c14610952578063a1184be714610b5057600080fd5b8063573864c41161047e57806369ce1c51116103ca578063811db762116103835780638bfde0ad1161035d5780638bfde0ad14610a845780638f3f156114610a9f578063926d692f14610aba57806393ea3c7914610ac957600080fd5b8063811db7621461070c5780638459ab5a14610a4e578063888117e214610a6957600080fd5b806369ce1c51146109b85780636c619a08146109d35780636ece0949146109ee578063709e1ba614610a095780637ed8196514610a24578063809d84ec14610a3f57600080fd5b80635f8e739b1161043757806363c7b8001161041157806363c7b80014610952578063669ac34f1461096d57806367dfd2c91461098857806367fee281146109a357600080fd5b80635f8e739b1461090157806360f0ff8e1461091c578063616258fc1461093757600080fd5b8063573864c41461085f57806357a16fd51461087a5780635878d5fe146108955780635932b5db146108b05780635ba1a94e146108cb5780635e035f15146108e657600080fd5b80632b7076a01161053d57806343ac40df116104f65780634d1b22f8116104d05780634d1b22f81461081a57806351365bc4146106c357806351a617aa146108355780635556b32a1461084457600080fd5b806343ac40df1461070c57806349377bd7146107e45780634c35332d146107ff57600080fd5b80632b7076a0146107425780632bfcce4e1461075d5780632f3a3fa61461077857806331e8ae5d146107935780633a276e4b146107ae5780633cad3fc1146107c957600080fd5b80631fab59fb1161058f5780631fab59fb1461069e57806325835133146106a857806326567399146106c357806327c0d94e146106de57806329da731e1461070c5780632b4c59db1461072757600080fd5b806301160825146105d757806304c4a7b31461060f578063062dbe8d146106325780630c7a801a1461064d5780630f011ded146106685780630ff859d614610683575b600080fd5b6105f273f694e193200268f9a4868e4aa017a0118c9a817781565b6040516001600160a01b0390911681526020015b60405180910390f35b61061962aa36a781565b60405167ffffffffffffffff9091168152602001610606565b6105f2736594e76b07a47568fe786fa19d67b73467b2b80a81565b6105f27349f06a3c04430889ff7ce29d27d1672c82bbba8681565b6105f2735b1141ab6250e2c89a13ed4e65edfcdc088bb4b581565b6105f2734d90a816133c48c90db46881c92a73e4e91a09cb81565b61061962066eee81565b6105f273280ee98cb396513db0aba22318d9b6f8abbaa6d881565b6105f273ed270f83c58bc698be7fca3de4ff935069c6d43181565b6106fe7566756e2d6f7074696d69736d2d7365706f6c69612d3160501b81565b604051908152602001610606565b6105f273111111111111111111111111111111111111111181565b6105f27393c6300dde76c66360e43b8e04bc7dcd3564194481565b6105f273b3718e52781f9fc1c0b72a2966c2616e6d962a1c81565b6105f273a2357ff6b2f4f34e66688709923303e217c4a52581565b6105f2733001d62ebc86ab3a4ef91afed766bb70182e251c81565b6105f273952f13984971588f3ed84718d72e3febc7f665af81565b6105f273d3b06cebf099ce7da4accf578aaebfdbd6e88a9381565b6105f27353f91da33120f44893cb896b12a83551dedb31c681565b6105f27385c16ab9b36c2b80a1faef7e0fb5ad86685bebf981565b6105f27332b8f75d2ac926a0a906f24df3e8fe2ba17bd80a81565b6105f27361c9f0cc4213cbb609ba0e216d54470b0d498c6881565b610619678f90b8876dee653881565b6105f2730804bfec3ef24bc6ca0eb399d108cc0313d86d9c81565b6105f2733015aa11f5c2d4bd0f891e708c8927961b38ce7d81565b6105f2736cc55345982d82e3e6dc704a64cdbd58a6421b7a81565b6105f273aca1ea8547e247a3125da273b16c17badc4f081281565b6105f273fc64c331d32267dbcbe81e386d55297baae14ab881565b6105f2739124d3b5dfd072bb2d6cf3e3a59430d2a5d8a55d81565b6105f273976aba97272dc6be8c93ea134fe273d8f9bb99f281565b6105f27375b86d7b224fd88f785bb5fac5e261d9efde304781565b6105f273e257e2a67407144c918acad5e11c2582f77c0b1a81565b6105f273f4c2fb6fe04c6f99b36fa9f0391971c4e5247afd81565b6105f273e4a9ee5cbe3eba7760fe1da4566ce97ef1fa567481565b6105f2730d98c55d41f8b28d2e3bf3e3665308faa032c73d81565b6105f273114a20a10b43d4115e5aeef7345a1a71d2a60c5781565b6109ab610e87565b6040516106069190611ce0565b6105f2739b5328599cefecd181b237f7138b298a9428692a81565b6105f273f83696ca1b8a266163be252be2b94702d492939281565b6105f273d28f8454873ceb4de41d537257044510c3a1d61681565b6105f273cc7ccb496a8fda44ae146a53dcc915b814df3cfd81565b6105f273a6932b792e4b4ffa1e78e63671f42d0aff02ed7381565b61061967ccf0a31a221f3c9b81565b6105f2732a9c5afb0d0e4bab2bcdae109ec4b0c4be15a16581565b6105f27398eeb02bc20c5e7079983e8f0d0d839dfc8f74fa81565b6105f27385ff250e0bfa6c32211489838a4b91b0eb9db1ff81565b6105f2735701139ae00fbb6060681803cd577d69053bb5b881565b61061967304611b6affba76a81565b6105f2739a24bd7833859d2364ead5a4af4b16799693df1281565b6105f2730bf3de8c5d3e8a2b34d2beeb17abfcebaf363a5981565b6105f273c84cb1f362a5c39b77d8d355012691bd3251318381565b6105f273961b2ae0fb373f3a41e1f9a4be80028868c6448381565b6105f273dff5ba9fcff83ce455e45de7572b6259b0e7d7de81565b6109ab6110ac565b6105f273dd36fb413b4470ab5ce67f975c6a2b192e6f84ba81565b61061962aa37dc81565b6105f2735a33f51c1d8595b8d3deb708bc8d116f403896ef81565b6105f273daa065d31736606d5bfa059ee528624ee379a73d81565b6106196748810ec3e431431f81565b6105f273c27edefa70c53135ec229f1ecc7c2219ada0914c81565b6105f27365ae0010421814b1303778bc82a599f63028d89981565b6106196201388281565b6109ab6112bf565b6105f273cacb7778cba5c5526e6ebba0a1ae74b4c310084b81565b61061967de41ba4fc9d91ad981565b6109ab6114d2565b6105f273da540b36e896b9a00f1f63bcce95ac1e40b0a3de81565b6105f27361ec26aa57019c486b10502285c5a3d4a4750ad781565b6109ab6116f7565b61061967e1f4423f1bf587cd81565b6105f2739c32fcb86bf0f4a1a8921a9fe46de3198bb884b281565b6105f273244ec7f5753b2fc10d0c2baab1ab55850e73a3ab81565b6105f273902be1a15cf92e4b59ae756ba869da531a26793781565b6105f27332bd7647043e3b72e2ba5492c74a7887600b2f9981565b6105f2738435a9e33ed2ec66e5ac063da5055a67b6229a0781565b6105f273492e85cd024a271c4f19d8b7e9050ef2bbfedcca81565b6105f273c17094e3a1348e5c7544d4ff8a36c28f2c6aae2881565b6105f27351353bfb9fb8bae6d70b896401937c64e96bacb981565b6105f27331a4ae750c0e8d477dd39af3662f93e69021aa5081565b6105f273620476fe1bc36a37530b416b7d658024d5966b0881565b61061960e481565b61061961a86981565b6105f273f3138b59cacba1a4d7d24fa7b184c20b3941433e81565b6105f273f6905f1e4ad86f8c3a1ebfca3e04a9e4d2addd0d81565b6105f2738907a105e562c9f3d7f2ed46539ae36d87a1559081565b61061962014a3481565b600c54610e169062010000900460ff1681565b6040519015158152602001610606565b6109ab611778565b6105f2734aa3b1639d45cb98a67790b8509e47bd7aa16d2a81565b6105f273d898bc60fc9d5837d86de609100af6ea9825c03581565b6109ab61199d565b6105f273979ccba756d0af02390cbcd039d186935bd8c81581565b610e8f611bc2565b604080516060808201835267e1f4423f1bf587cd808352735b1141ab6250e2c89a13ed4e65edfcdc088bb4b5602080850191909152733015aa11f5c2d4bd0f891e708c8927961b38ce7d84860152928552835180830185528181527385c16ab9b36c2b80a1faef7e0fb5ad86685bebf9818501527361ec26aa57019c486b10502285c5a3d4a4750ad781860152858401528351808301855281815273c84cb1f362a5c39b77d8d355012691bd32513183818501527353f91da33120f44893cb896b12a83551dedb31c68186015285850152835180830185528181527332bd7647043e3b72e2ba5492c74a7887600b2f998185015273cacb7778cba5c5526e6ebba0a1ae74b4c310084b81860152858301528351808301855281815273976aba97272dc6be8c93ea134fe273d8f9bb99f28185015273280ee98cb396513db0aba22318d9b6f8abbaa6d8818601526080860152835180830185528181527385ff250e0bfa6c32211489838a4b91b0eb9db1ff8185015273a6932b792e4b4ffa1e78e63671f42d0aff02ed738186015260a0860152835180830185528181527361c9f0cc4213cbb609ba0e216d54470b0d498c688185015273f83696ca1b8a266163be252be2b94702d49293928186015260c08601528351918201845281527349f06a3c04430889ff7ce29d27d1672c82bbba8691810191909152738907a105e562c9f3d7f2ed46539ae36d87a155909181019190915260e082015290565b6110b4611bc2565b60408051606080820183526748810ec3e431431f8083527393c6300dde76c66360e43b8e04bc7dcd35641944602080850191909152733015aa11f5c2d4bd0f891e708c8927961b38ce7d848601529285528351808301855281815273c27edefa70c53135ec229f1ecc7c2219ada0914c818501527361ec26aa57019c486b10502285c5a3d4a4750ad781860152858401528351808301855281815273e4a9ee5cbe3eba7760fe1da4566ce97ef1fa5674818501527353f91da33120f44893cb896b12a83551dedb31c6818601528585015283518083018552818152734d90a816133c48c90db46881c92a73e4e91a09cb81850152738907a105e562c9f3d7f2ed46539ae36d87a15590818601819052868401919091528451808401865282815273ed270f83c58bc698be7fca3de4ff935069c6d4318186015273280ee98cb396513db0aba22318d9b6f8abbaa6d88187015260808701528451808401865282815273daa065d31736606d5bfa059ee528624ee379a73d8186015273a6932b792e4b4ffa1e78e63671f42d0aff02ed738187015260a08701528451808401865282815273d898bc60fc9d5837d86de609100af6ea9825c0358186015273f83696ca1b8a266163be252be2b94702d49293928187015260c087015284519283018552908252739b5328599cefecd181b237f7138b298a9428692a928201929092529182015260e082015290565b6112c7611bc2565b6040805160608082018352678f90b8876dee6538808352735701139ae00fbb6060681803cd577d69053bb5b8602080850191909152733015aa11f5c2d4bd0f891e708c8927961b38ce7d848601529285528351808301855281815273979ccba756d0af02390cbcd039d186935bd8c815818501527361ec26aa57019c486b10502285c5a3d4a4750ad781860152858401528351808301855281815273f4c2fb6fe04c6f99b36fa9f0391971c4e5247afd818501527353f91da33120f44893cb896b12a83551dedb31c68186015285850152835180830185528181527393c6300dde76c66360e43b8e04bc7dcd356419448185015273cacb7778cba5c5526e6ebba0a1ae74b4c310084b81860152858301528351808301855281815273c27edefa70c53135ec229f1ecc7c2219ada0914c8185015273280ee98cb396513db0aba22318d9b6f8abbaa6d88186015260808601528351808301855281815273e4a9ee5cbe3eba7760fe1da4566ce97ef1fa56748185015273a6932b792e4b4ffa1e78e63671f42d0aff02ed738186015260a086015283518083018552818152734d90a816133c48c90db46881c92a73e4e91a09cb8185015273f83696ca1b8a266163be252be2b94702d492939281860181905260c08701919091528451928301855290825273ed270f83c58bc698be7fca3de4ff935069c6d431928201929092529182015260e082015290565b6114da611bc2565b604080516060808201835267de41ba4fc9d91ad9808352734aa3b1639d45cb98a67790b8509e47bd7aa16d2a602080850191909152733015aa11f5c2d4bd0f891e708c8927961b38ce7d8486015292855283518083018552818152739124d3b5dfd072bb2d6cf3e3a59430d2a5d8a55d818501527361ec26aa57019c486b10502285c5a3d4a4750ad78186015285840152835180830185528181527331a4ae750c0e8d477dd39af3662f93e69021aa50818501527353f91da33120f44893cb896b12a83551dedb31c681860152858501528351808301855281815273dd36fb413b4470ab5ce67f975c6a2b192e6f84ba8185015273cacb7778cba5c5526e6ebba0a1ae74b4c310084b81860152858301528351808301855281815273492e85cd024a271c4f19d8b7e9050ef2bbfedcca8185015273280ee98cb396513db0aba22318d9b6f8abbaa6d8818601526080860152835180830185528181527365ae0010421814b1303778bc82a599f63028d8998185015273a6932b792e4b4ffa1e78e63671f42d0aff02ed738186015260a08601528351808301855281815273b3718e52781f9fc1c0b72a2966c2616e6d962a1c8185015273f83696ca1b8a266163be252be2b94702d49293928186015260c086015283519182018452815273902be1a15cf92e4b59ae756ba869da531a26793791810191909152738907a105e562c9f3d7f2ed46539ae36d87a155909181019190915260e082015290565b6116ff611bc2565b61a8681946016117165761171161199d565b905090565b62aa36a6194601611729576117116114d2565b62066eed19460161173c57611711611778565b6201388119460161174f57611711610e87565b62014a33194601611762576117116112bf565b62aa37db194601611775576117116110ac565b90565b611780611bc2565b604080516060808201835267304611b6affba76a80835273f6905f1e4ad86f8c3a1ebfca3e04a9e4d2addd0d602080850191909152733015aa11f5c2d4bd0f891e708c8927961b38ce7d8486015292855283518083018552818152739a24bd7833859d2364ead5a4af4b16799693df12818501527361ec26aa57019c486b10502285c5a3d4a4750ad781860152858401528351808301855281815273244ec7f5753b2fc10d0c2baab1ab55850e73a3ab818501527353f91da33120f44893cb896b12a83551dedb31c681860152858501528351808301855281815273e257e2a67407144c918acad5e11c2582f77c0b1a8185015273cacb7778cba5c5526e6ebba0a1ae74b4c310084b8186015285830152835180830185528181527332b8f75d2ac926a0a906f24df3e8fe2ba17bd80a8185015273280ee98cb396513db0aba22318d9b6f8abbaa6d88186015260808601528351808301855281815273dff5ba9fcff83ce455e45de7572b6259b0e7d7de8185015273a6932b792e4b4ffa1e78e63671f42d0aff02ed738186015260a0860152835180830185528181527398eeb02bc20c5e7079983e8f0d0d839dfc8f74fa8185015273f83696ca1b8a266163be252be2b94702d49293928186015260c08601528351918201845281527375b86d7b224fd88f785bb5fac5e261d9efde304791810191909152738907a105e562c9f3d7f2ed46539ae36d87a155909181019190915260e082015290565b6119a5611bc2565b604080516060808201835267ccf0a31a221f3c9b808352730804bfec3ef24bc6ca0eb399d108cc0313d86d9c602080850191909152733015aa11f5c2d4bd0f891e708c8927961b38ce7d84860152928552835180830185528181527351353bfb9fb8bae6d70b896401937c64e96bacb9818501527361ec26aa57019c486b10502285c5a3d4a4750ad7818601528584015283518083018552818152733001d62ebc86ab3a4ef91afed766bb70182e251c818501527353f91da33120f44893cb896b12a83551dedb31c681860152858501528351808301855281815273d28f8454873ceb4de41d537257044510c3a1d6168185015273cacb7778cba5c5526e6ebba0a1ae74b4c310084b818601528583015283518083018552818152736cc55345982d82e3e6dc704a64cdbd58a6421b7a8185015273280ee98cb396513db0aba22318d9b6f8abbaa6d88186015260808601528351808301855281815273620476fe1bc36a37530b416b7d658024d5966b088185015273a6932b792e4b4ffa1e78e63671f42d0aff02ed738186015260a08601528351808301855281815273aca1ea8547e247a3125da273b16c17badc4f08128185015273f83696ca1b8a266163be252be2b94702d49293928186015260c086015283519182018452815273f3138b59cacba1a4d7d24fa7b184c20b3941433e91810191909152738907a105e562c9f3d7f2ed46539ae36d87a155909181019190915260e082015290565b604080516101608101825260006101008201818152610120830182905261014083018290528252825160608082018552828252602080830184905282860184905280850192909252845180820186528381528083018490528086018490528486015284518082018652838152808301849052808601849052818501528451808201865283815280830184905280860184905260808501528451808201865283815280830184905280860184905260a08501528451808201865283815280830184905280860184905260c0850152845190810185528281529081018290529283015260e081019190915290565b805167ffffffffffffffff1682526020808201516001600160a01b039081169184019190915260409182015116910152565b600061030082019050611cf4828451611cae565b6020830151611d066060840182611cae565b506040830151611d1960c0840182611cae565b506060830151611d2d610120840182611cae565b506080830151611d41610180840182611cae565b5060a0830151611d556101e0840182611cae565b5060c0830151611d69610240840182611cae565b5060e0830151611d7d6102a0840182611cae565b509291505056fea26469706673582212201c58078b942871beb5be7552e2b5bc9ea80de79fe5c56c56321f123c7aa9513c64736f6c63430008140033",
        "nonce": "0x3",
        "chainId": "0x106a"
      },
      "additionalContracts": [],
      "isFixedGasLimit": false
    },
    {
      "hash": null,
      "transactionType": "CALL",
      "contractName": "MainRouter",
      "contractAddress": "0x979ccba756d0af02390cbcd039d186935bd8c815",
      "function": "addAllowedToken(uint64,address,address,uint8)",
      "arguments": [
        "14767482510784806043",
        "0x0804BfEC3ef24bc6CA0eb399D108CC0313d86d9c",
        "0x3015aa11f5c2D4Bd0f891E708C8927961b38cE7D",
        "18"
      ],
      "transaction": {
        "from": "0x88f0807bf33b15bdf234fa2c92b469f665881bce",
        "to": "0x979ccba756d0af02390cbcd039d186935bd8c815",
        "gas": "0x35a78",
        "value": "0x0",
        "input": "0x40bf5da4000000000000000000000000000000000000000000000000ccf0a31a221f3c9b0000000000000000000000000804bfec3ef24bc6ca0eb399d108cc0313d86d9c0000000000000000000000003015aa11f5c2d4bd0f891e708c8927961b38ce7d0000000000000000000000000000000000000000000000000000000000000012",
        "nonce": "0x4",
        "chainId": "0x106a"
      },
      "additionalContracts": [],
      "isFixedGasLimit": false
    },
    {
      "hash": null,
      "transactionType": "CALL",
      "contractName": "MainRouter",
      "contractAddress": "0x979ccba756d0af02390cbcd039d186935bd8c815",
      "function": "addAllowedToken(uint64,address,address,uint8)",
      "arguments": [
        "14767482510784806043",
        "0x51353BFb9fB8baE6d70b896401937C64E96BAcB9",
        "0x61Ec26aA57019C486B10502285c5A3D4A4750AD7",
        "18"
      ],
      "transaction": {
        "from": "0x88f0807bf33b15bdf234fa2c92b469f665881bce",
        "to": "0x979ccba756d0af02390cbcd039d186935bd8c815",
        "gas": "0x32b48",
        "value": "0x0",
        "input": "0x40bf5da4000000000000000000000000000000000000000000000000ccf0a31a221f3c9b00000000000000000000000051353bfb9fb8bae6d70b896401937c64e96bacb900000000000000000000000061ec26aa57019c486b10502285c5a3d4a4750ad70000000000000000000000000000000000000000000000000000000000000012",
        "nonce": "0x5",
        "chainId": "0x106a"
      },
      "additionalContracts": [],
      "isFixedGasLimit": false
    },
    {
      "hash": null,
      "transactionType": "CALL",
      "contractName": "MainRouter",
      "contractAddress": "0x979ccba756d0af02390cbcd039d186935bd8c815",
      "function": "addAllowedToken(uint64,address,address,uint8)",
      "arguments": [
        "14767482510784806043",
        "0x3001d62eBc86ab3A4eF91aFed766BB70182e251c",
        "0x53f91dA33120F44893CB896b12a83551DEDb31c6",
        "18"
      ],
      "transaction": {
        "from": "0x88f0807bf33b15bdf234fa2c92b469f665881bce",
        "to": "0x979ccba756d0af02390cbcd039d186935bd8c815",
        "gas": "0x32b48",
        "value": "0x0",
        "input": "0x40bf5da4000000000000000000000000000000000000000000000000ccf0a31a221f3c9b0000000000000000000000003001d62ebc86ab3a4ef91afed766bb70182e251c00000000000000000000000053f91da33120f44893cb896b12a83551dedb31c60000000000000000000000000000000000000000000000000000000000000012",
        "nonce": "0x6",
        "chainId": "0x106a"
      },
      "additionalContracts": [],
      "isFixedGasLimit": false
    },
    {
      "hash": null,
      "transactionType": "CALL",
      "contractName": "MainRouter",
      "contractAddress": "0x979ccba756d0af02390cbcd039d186935bd8c815",
      "function": "addAllowedToken(uint64,address,address,uint8)",
      "arguments": [
        "14767482510784806043",
        "0xD28f8454873CEb4de41d537257044510c3A1d616",
        "0xcacB7778Cba5C5526E6EBbA0A1aE74B4c310084B",
        "18"
      ],
      "transaction": {
        "from": "0x88f0807bf33b15bdf234fa2c92b469f665881bce",
        "to": "0x979ccba756d0af02390cbcd039d186935bd8c815",
        "gas": "0x32b48",
        "value": "0x0",
        "input": "0x40bf5da4000000000000000000000000000000000000000000000000ccf0a31a221f3c9b000000000000000000000000d28f8454873ceb4de41d537257044510c3a1d616000000000000000000000000cacb7778cba5c5526e6ebba0a1ae74b4c310084b0000000000000000000000000000000000000000000000000000000000000012",
        "nonce": "0x7",
        "chainId": "0x106a"
      },
      "additionalContracts": [],
      "isFixedGasLimit": false
    },
    {
      "hash": null,
      "transactionType": "CALL",
      "contractName": "MainRouter",
      "contractAddress": "0x979ccba756d0af02390cbcd039d186935bd8c815",
      "function": "addAllowedToken(uint64,address,address,uint8)",
      "arguments": [
        "14767482510784806043",
        "0x6cC55345982d82e3E6dC704a64cdbD58a6421b7A",
        "0x280eE98Cb396513DB0aBa22318d9B6F8AbbAa6D8",
        "18"
      ],
      "transaction": {
        "from": "0x88f0807bf33b15bdf234fa2c92b469f665881bce",
        "to": "0x979ccba756d0af02390cbcd039d186935bd8c815",
        "gas": "0x32b48",
        "value": "0x0",
        "input": "0x40bf5da4000000000000000000000000000000000000000000000000ccf0a31a221f3c9b0000000000000000000000006cc55345982d82e3e6dc704a64cdbd58a6421b7a000000000000000000000000280ee98cb396513db0aba22318d9b6f8abbaa6d80000000000000000000000000000000000000000000000000000000000000012",
        "nonce": "0x8",
        "chainId": "0x106a"
      },
      "additionalContracts": [],
      "isFixedGasLimit": false
    },
    {
      "hash": null,
      "transactionType": "CALL",
      "contractName": "MainRouter",
      "contractAddress": "0x979ccba756d0af02390cbcd039d186935bd8c815",
      "function": "addAllowedToken(uint64,address,address,uint8)",
      "arguments": [
        "14767482510784806043",
        "0x620476fe1Bc36a37530b416B7d658024D5966b08",
        "0xa6932B792e4b4FfA1e78e63671f42d0aff02eD73",
        "6"
      ],
      "transaction": {
        "from": "0x88f0807bf33b15bdf234fa2c92b469f665881bce",
        "to": "0x979ccba756d0af02390cbcd039d186935bd8c815",
        "gas": "0x32b48",
        "value": "0x0",
        "input": "0x40bf5da4000000000000000000000000000000000000000000000000ccf0a31a221f3c9b000000000000000000000000620476fe1bc36a37530b416b7d658024d5966b08000000000000000000000000a6932b792e4b4ffa1e78e63671f42d0aff02ed730000000000000000000000000000000000000000000000000000000000000006",
        "nonce": "0x9",
        "chainId": "0x106a"
      },
      "additionalContracts": [],
      "isFixedGasLimit": false
    },
    {
      "hash": null,
      "transactionType": "CALL",
      "contractName": "MainRouter",
      "contractAddress": "0x979ccba756d0af02390cbcd039d186935bd8c815",
      "function": "addAllowedToken(uint64,address,address,uint8)",
      "arguments": [
        "14767482510784806043",
        "0xAcA1eA8547E247a3125Da273b16C17Badc4f0812",
        "0xF83696ca1b8a266163bE252bE2B94702D4929392",
        "6"
      ],
      "transaction": {
        "from": "0x88f0807bf33b15bdf234fa2c92b469f665881bce",
        "to": "0x979ccba756d0af02390cbcd039d186935bd8c815",
        "gas": "0x32b48",
        "value": "0x0",
        "input": "0x40bf5da4000000000000000000000000000000000000000000000000ccf0a31a221f3c9b000000000000000000000000aca1ea8547e247a3125da273b16c17badc4f0812000000000000000000000000f83696ca1b8a266163be252be2b94702d49293920000000000000000000000000000000000000000000000000000000000000006",
        "nonce": "0xa",
        "chainId": "0x106a"
      },
      "additionalContracts": [],
      "isFixedGasLimit": false
    },
    {
      "hash": null,
      "transactionType": "CALL",
      "contractName": "MainRouter",
      "contractAddress": "0x979ccba756d0af02390cbcd039d186935bd8c815",
      "function": "addAllowedToken(uint64,address,address,uint8)",
      "arguments": [
        "14767482510784806043",
        "0xf3138B59cAcbA1a4d7d24fA7b184c20B3941433e",
        "0x8907a105E562C9F3d7F2ed46539Ae36D87a15590",
        "18"
      ],
      "transaction": {
        "from": "0x88f0807bf33b15bdf234fa2c92b469f665881bce",
        "to": "0x979ccba756d0af02390cbcd039d186935bd8c815",
        "gas": "0x32b48",
        "value": "0x0",
        "input": "0x40bf5da4000000000000000000000000000000000000000000000000ccf0a31a221f3c9b000000000000000000000000f3138b59cacba1a4d7d24fa7b184c20b3941433e0000000000000000000000008907a105e562c9f3d7f2ed46539ae36d87a155900000000000000000000000000000000000000000000000000000000000000012",
        "nonce": "0xb",
        "chainId": "0x106a"
      },
      "additionalContracts": [],
      "isFixedGasLimit": false
    },
    {
      "hash": null,
      "transactionType": "CALL",
      "contractName": "MainRouter",
      "contractAddress": "0x979ccba756d0af02390cbcd039d186935bd8c815",
      "function": "addAllowedToken(uint64,address,address,uint8)",
      "arguments": [
        "16015286601757825753",
        "0x4aa3B1639d45Cb98a67790b8509E47bD7aa16D2A",
        "0x3015aa11f5c2D4Bd0f891E708C8927961b38cE7D",
        "18"
      ],
      "transaction": {
        "from": "0x88f0807bf33b15bdf234fa2c92b469f665881bce",
        "to": "0x979ccba756d0af02390cbcd039d186935bd8c815",
        "gas": "0x35a78",
        "value": "0x0",
        "input": "0x40bf5da4000000000000000000000000000000000000000000000000de41ba4fc9d91ad90000000000000000000000004aa3b1639d45cb98a67790b8509e47bd7aa16d2a0000000000000000000000003015aa11f5c2d4bd0f891e708c8927961b38ce7d0000000000000000000000000000000000000000000000000000000000000012",
        "nonce": "0xc",
        "chainId": "0x106a"
      },
      "additionalContracts": [],
      "isFixedGasLimit": false
    },
    {
      "hash": null,
      "transactionType": "CALL",
      "contractName": "MainRouter",
      "contractAddress": "0x979ccba756d0af02390cbcd039d186935bd8c815",
      "function": "addAllowedToken(uint64,address,address,uint8)",
      "arguments": [
        "16015286601757825753",
        "0x9124d3b5DfD072bB2d6cf3e3A59430d2a5D8A55D",
        "0x61Ec26aA57019C486B10502285c5A3D4A4750AD7",
        "18"
      ],
      "transaction": {
        "from": "0x88f0807bf33b15bdf234fa2c92b469f665881bce",
        "to": "0x979ccba756d0af02390cbcd039d186935bd8c815",
        "gas": "0x32b48",
        "value": "0x0",
        "input": "0x40bf5da4000000000000000000000000000000000000000000000000de41ba4fc9d91ad90000000000000000000000009124d3b5dfd072bb2d6cf3e3a59430d2a5d8a55d00000000000000000000000061ec26aa57019c486b10502285c5a3d4a4750ad70000000000000000000000000000000000000000000000000000000000000012",
        "nonce": "0xd",
        "chainId": "0x106a"
      },
      "additionalContracts": [],
      "isFixedGasLimit": false
    },
    {
      "hash": null,
      "transactionType": "CALL",
      "contractName": "MainRouter",
      "contractAddress": "0x979ccba756d0af02390cbcd039d186935bd8c815",
      "function": "addAllowedToken(uint64,address,address,uint8)",
      "arguments": [
        "16015286601757825753",
        "0x31A4Ae750C0e8d477Dd39AF3662F93e69021AA50",
        "0x53f91dA33120F44893CB896b12a83551DEDb31c6",
        "18"
      ],
      "transaction": {
        "from": "0x88f0807bf33b15bdf234fa2c92b469f665881bce",
        "to": "0x979ccba756d0af02390cbcd039d186935bd8c815",
        "gas": "0x32b48",
        "value": "0x0",
        "input": "0x40bf5da4000000000000000000000000000000000000000000000000de41ba4fc9d91ad900000000000000000000000031a4ae750c0e8d477dd39af3662f93e69021aa5000000000000000000000000053f91da33120f44893cb896b12a83551dedb31c60000000000000000000000000000000000000000000000000000000000000012",
        "nonce": "0xe",
        "chainId": "0x106a"
      },
      "additionalContracts": [],
      "isFixedGasLimit": false
    },
    {
      "hash": null,
      "transactionType": "CALL",
      "contractName": "MainRouter",
      "contractAddress": "0x979ccba756d0af02390cbcd039d186935bd8c815",
      "function": "addAllowedToken(uint64,address,address,uint8)",
      "arguments": [
        "16015286601757825753",
        "0xdd36FB413B4470ab5CE67F975c6A2B192e6F84ba",
        "0xcacB7778Cba5C5526E6EBbA0A1aE74B4c310084B",
        "18"
      ],
      "transaction": {
        "from": "0x88f0807bf33b15bdf234fa2c92b469f665881bce",
        "to": "0x979ccba756d0af02390cbcd039d186935bd8c815",
        "gas": "0x32b48",
        "value": "0x0",
        "input": "0x40bf5da4000000000000000000000000000000000000000000000000de41ba4fc9d91ad9000000000000000000000000dd36fb413b4470ab5ce67f975c6a2b192e6f84ba000000000000000000000000cacb7778cba5c5526e6ebba0a1ae74b4c310084b0000000000000000000000000000000000000000000000000000000000000012",
        "nonce": "0xf",
        "chainId": "0x106a"
      },
      "additionalContracts": [],
      "isFixedGasLimit": false
    },
    {
      "hash": null,
      "transactionType": "CALL",
      "contractName": "MainRouter",
      "contractAddress": "0x979ccba756d0af02390cbcd039d186935bd8c815",
      "function": "addAllowedToken(uint64,address,address,uint8)",
      "arguments": [
        "16015286601757825753",
        "0x492E85cD024A271C4F19d8B7E9050Ef2bbFeDcCA",
        "0x280eE98Cb396513DB0aBa22318d9B6F8AbbAa6D8",
        "18"
      ],
      "transaction": {
        "from": "0x88f0807bf33b15bdf234fa2c92b469f665881bce",
        "to": "0x979ccba756d0af02390cbcd039d186935bd8c815",
        "gas": "0x32b48",
        "value": "0x0",
        "input": "0x40bf5da4000000000000000000000000000000000000000000000000de41ba4fc9d91ad9000000000000000000000000492e85cd024a271c4f19d8b7e9050ef2bbfedcca000000000000000000000000280ee98cb396513db0aba22318d9b6f8abbaa6d80000000000000000000000000000000000000000000000000000000000000012",
        "nonce": "0x10",
        "chainId": "0x106a"
      },
      "additionalContracts": [],
      "isFixedGasLimit": false
    },
    {
      "hash": null,
      "transactionType": "CALL",
      "contractName": "MainRouter",
      "contractAddress": "0x979ccba756d0af02390cbcd039d186935bd8c815",
      "function": "addAllowedToken(uint64,address,address,uint8)",
      "arguments": [
        "16015286601757825753",
        "0x65Ae0010421814B1303778Bc82a599f63028d899",
        "0xa6932B792e4b4FfA1e78e63671f42d0aff02eD73",
        "6"
      ],
      "transaction": {
        "from": "0x88f0807bf33b15bdf234fa2c92b469f665881bce",
        "to": "0x979ccba756d0af02390cbcd039d186935bd8c815",
        "gas": "0x2fe24",
        "value": "0x0",
        "input": "0x40bf5da4000000000000000000000000000000000000000000000000de41ba4fc9d91ad900000000000000000000000065ae0010421814b1303778bc82a599f63028d899000000000000000000000000a6932b792e4b4ffa1e78e63671f42d0aff02ed730000000000000000000000000000000000000000000000000000000000000006",
        "nonce": "0x11",
        "chainId": "0x106a"
      },
      "additionalContracts": [],
      "isFixedGasLimit": false
    },
    {
      "hash": null,
      "transactionType": "CALL",
      "contractName": "MainRouter",
      "contractAddress": "0x979ccba756d0af02390cbcd039d186935bd8c815",
      "function": "addAllowedToken(uint64,address,address,uint8)",
      "arguments": [
        "16015286601757825753",
        "0xB3718E52781F9Fc1C0b72A2966C2616E6d962a1C",
        "0xF83696ca1b8a266163bE252bE2B94702D4929392",
        "6"
      ],
      "transaction": {
        "from": "0x88f0807bf33b15bdf234fa2c92b469f665881bce",
        "to": "0x979ccba756d0af02390cbcd039d186935bd8c815",
        "gas": "0x32b48",
        "value": "0x0",
        "input": "0x40bf5da4000000000000000000000000000000000000000000000000de41ba4fc9d91ad9000000000000000000000000b3718e52781f9fc1c0b72a2966c2616e6d962a1c000000000000000000000000f83696ca1b8a266163be252be2b94702d49293920000000000000000000000000000000000000000000000000000000000000006",
        "nonce": "0x12",
        "chainId": "0x106a"
      },
      "additionalContracts": [],
      "isFixedGasLimit": false
    },
    {
      "hash": null,
      "transactionType": "CALL",
      "contractName": "MainRouter",
      "contractAddress": "0x979ccba756d0af02390cbcd039d186935bd8c815",
      "function": "addAllowedToken(uint64,address,address,uint8)",
      "arguments": [
        "16015286601757825753",
        "0x902Be1A15cf92e4b59ae756bA869Da531A267937",
        "0x8907a105E562C9F3d7F2ed46539Ae36D87a15590",
        "18"
      ],
      "transaction": {
        "from": "0x88f0807bf33b15bdf234fa2c92b469f665881bce",
        "to": "0x979ccba756d0af02390cbcd039d186935bd8c815",
        "gas": "0x32b48",
        "value": "0x0",
        "input": "0x40bf5da4000000000000000000000000000000000000000000000000de41ba4fc9d91ad9000000000000000000000000902be1a15cf92e4b59ae756ba869da531a2679370000000000000000000000008907a105e562c9f3d7f2ed46539ae36d87a155900000000000000000000000000000000000000000000000000000000000000012",
        "nonce": "0x13",
        "chainId": "0x106a"
      },
      "additionalContracts": [],
      "isFixedGasLimit": false
    },
    {
      "hash": null,
      "transactionType": "CALL",
      "contractName": "MainRouter",
      "contractAddress": "0x979ccba756d0af02390cbcd039d186935bd8c815",
      "function": "addAllowedToken(uint64,address,address,uint8)",
      "arguments": [
        "16281711391670634445",
        "0x5B1141AB6250e2c89A13Ed4E65EDfcDc088BB4b5",
        "0x3015aa11f5c2D4Bd0f891E708C8927961b38cE7D",
        "18"
      ],
      "transaction": {
        "from": "0x88f0807bf33b15bdf234fa2c92b469f665881bce",
        "to": "0x979ccba756d0af02390cbcd039d186935bd8c815",
        "gas": "0x35a78",
        "value": "0x0",
        "input": "0x40bf5da4000000000000000000000000000000000000000000000000e1f4423f1bf587cd0000000000000000000000005b1141ab6250e2c89a13ed4e65edfcdc088bb4b50000000000000000000000003015aa11f5c2d4bd0f891e708c8927961b38ce7d0000000000000000000000000000000000000000000000000000000000000012",
        "nonce": "0x14",
        "chainId": "0x106a"
      },
      "additionalContracts": [],
      "isFixedGasLimit": false
    },
    {
      "hash": null,
      "transactionType": "CALL",
      "contractName": "MainRouter",
      "contractAddress": "0x979ccba756d0af02390cbcd039d186935bd8c815",
      "function": "addAllowedToken(uint64,address,address,uint8)",
      "arguments": [
        "16281711391670634445",
        "0x85c16AB9B36c2b80a1Faef7E0fb5Ad86685BEBf9",
        "0x61Ec26aA57019C486B10502285c5A3D4A4750AD7",
        "18"
      ],
      "transaction": {
        "from": "0x88f0807bf33b15bdf234fa2c92b469f665881bce",
        "to": "0x979ccba756d0af02390cbcd039d186935bd8c815",
        "gas": "0x32b48",
        "value": "0x0",
        "input": "0x40bf5da4000000000000000000000000000000000000000000000000e1f4423f1bf587cd00000000000000000000000085c16ab9b36c2b80a1faef7e0fb5ad86685bebf900000000000000000000000061ec26aa57019c486b10502285c5a3d4a4750ad70000000000000000000000000000000000000000000000000000000000000012",
        "nonce": "0x15",
        "chainId": "0x106a"
      },
      "additionalContracts": [],
      "isFixedGasLimit": false
    },
    {
      "hash": null,
      "transactionType": "CALL",
      "contractName": "MainRouter",
      "contractAddress": "0x979ccba756d0af02390cbcd039d186935bd8c815",
      "function": "addAllowedToken(uint64,address,address,uint8)",
      "arguments": [
        "16281711391670634445",
        "0xC84Cb1F362A5c39B77D8D355012691bD32513183",
        "0x53f91dA33120F44893CB896b12a83551DEDb31c6",
        "18"
      ],
      "transaction": {
        "from": "0x88f0807bf33b15bdf234fa2c92b469f665881bce",
        "to": "0x979ccba756d0af02390cbcd039d186935bd8c815",
        "gas": "0x32b48",
        "value": "0x0",
        "input": "0x40bf5da4000000000000000000000000000000000000000000000000e1f4423f1bf587cd000000000000000000000000c84cb1f362a5c39b77d8d355012691bd3251318300000000000000000000000053f91da33120f44893cb896b12a83551dedb31c60000000000000000000000000000000000000000000000000000000000000012",
        "nonce": "0x16",
        "chainId": "0x106a"
      },
      "additionalContracts": [],
      "isFixedGasLimit": false
    },
    {
      "hash": null,
      "transactionType": "CALL",
      "contractName": "MainRouter",
      "contractAddress": "0x979ccba756d0af02390cbcd039d186935bd8c815",
      "function": "addAllowedToken(uint64,address,address,uint8)",
      "arguments": [
        "16281711391670634445",
        "0x32BD7647043E3B72E2BA5492C74a7887600B2F99",
        "0xcacB7778Cba5C5526E6EBbA0A1aE74B4c310084B",
        "18"
      ],
      "transaction": {
        "from": "0x88f0807bf33b15bdf234fa2c92b469f665881bce",
        "to": "0x979ccba756d0af02390cbcd039d186935bd8c815",
        "gas": "0x32b48",
        "value": "0x0",
        "input": "0x40bf5da4000000000000000000000000000000000000000000000000e1f4423f1bf587cd00000000000000000000000032bd7647043e3b72e2ba5492c74a7887600b2f99000000000000000000000000cacb7778cba5c5526e6ebba0a1ae74b4c310084b0000000000000000000000000000000000000000000000000000000000000012",
        "nonce": "0x17",
        "chainId": "0x106a"
      },
      "additionalContracts": [],
      "isFixedGasLimit": false
    },
    {
      "hash": null,
      "transactionType": "CALL",
      "contractName": "MainRouter",
      "contractAddress": "0x979ccba756d0af02390cbcd039d186935bd8c815",
      "function": "addAllowedToken(uint64,address,address,uint8)",
      "arguments": [
        "16281711391670634445",
        "0x976abA97272DC6bE8C93ea134FE273D8F9Bb99f2",
        "0x280eE98Cb396513DB0aBa22318d9B6F8AbbAa6D8",
        "18"
      ],
      "transaction": {
        "from": "0x88f0807bf33b15bdf234fa2c92b469f665881bce",
        "to": "0x979ccba756d0af02390cbcd039d186935bd8c815",
        "gas": "0x32b48",
        "value": "0x0",
        "input": "0x40bf5da4000000000000000000000000000000000000000000000000e1f4423f1bf587cd000000000000000000000000976aba97272dc6be8c93ea134fe273d8f9bb99f2000000000000000000000000280ee98cb396513db0aba22318d9b6f8abbaa6d80000000000000000000000000000000000000000000000000000000000000012",
        "nonce": "0x18",
        "chainId": "0x106a"
      },
      "additionalContracts": [],
      "isFixedGasLimit": false
    },
    {
      "hash": null,
      "transactionType": "CALL",
      "contractName": "MainRouter",
      "contractAddress": "0x979ccba756d0af02390cbcd039d186935bd8c815",
      "function": "addAllowedToken(uint64,address,address,uint8)",
      "arguments": [
        "16281711391670634445",
        "0x85fF250e0bFa6c32211489838A4B91B0EB9dB1FF",
        "0xa6932B792e4b4FfA1e78e63671f42d0aff02eD73",
        "6"
      ],
      "transaction": {
        "from": "0x88f0807bf33b15bdf234fa2c92b469f665881bce",
        "to": "0x979ccba756d0af02390cbcd039d186935bd8c815",
        "gas": "0x32b48",
        "value": "0x0",
        "input": "0x40bf5da4000000000000000000000000000000000000000000000000e1f4423f1bf587cd00000000000000000000000085ff250e0bfa6c32211489838a4b91b0eb9db1ff000000000000000000000000a6932b792e4b4ffa1e78e63671f42d0aff02ed730000000000000000000000000000000000000000000000000000000000000006",
        "nonce": "0x19",
        "chainId": "0x106a"
      },
      "additionalContracts": [],
      "isFixedGasLimit": false
    },
    {
      "hash": null,
      "transactionType": "CALL",
      "contractName": "MainRouter",
      "contractAddress": "0x979ccba756d0af02390cbcd039d186935bd8c815",
      "function": "addAllowedToken(uint64,address,address,uint8)",
      "arguments": [
        "16281711391670634445",
        "0x61c9f0Cc4213CBB609bA0E216D54470B0d498C68",
        "0xF83696ca1b8a266163bE252bE2B94702D4929392",
        "6"
      ],
      "transaction": {
        "from": "0x88f0807bf33b15bdf234fa2c92b469f665881bce",
        "to": "0x979ccba756d0af02390cbcd039d186935bd8c815",
        "gas": "0x32b48",
        "value": "0x0",
        "input": "0x40bf5da4000000000000000000000000000000000000000000000000e1f4423f1bf587cd00000000000000000000000061c9f0cc4213cbb609ba0e216d54470b0d498c68000000000000000000000000f83696ca1b8a266163be252be2b94702d49293920000000000000000000000000000000000000000000000000000000000000006",
        "nonce": "0x1a",
        "chainId": "0x106a"
      },
      "additionalContracts": [],
      "isFixedGasLimit": false
    },
    {
      "hash": null,
      "transactionType": "CALL",
      "contractName": "MainRouter",
      "contractAddress": "0x979ccba756d0af02390cbcd039d186935bd8c815",
      "function": "addAllowedToken(uint64,address,address,uint8)",
      "arguments": [
        "16281711391670634445",
        "0x49F06a3C04430889FF7ce29D27D1672c82bbBA86",
        "0x8907a105E562C9F3d7F2ed46539Ae36D87a15590",
        "18"
      ],
      "transaction": {
        "from": "0x88f0807bf33b15bdf234fa2c92b469f665881bce",
        "to": "0x979ccba756d0af02390cbcd039d186935bd8c815",
        "gas": "0x32b48",
        "value": "0x0",
        "input": "0x40bf5da4000000000000000000000000000000000000000000000000e1f4423f1bf587cd00000000000000000000000049f06a3c04430889ff7ce29d27d1672c82bbba860000000000000000000000008907a105e562c9f3d7f2ed46539ae36d87a155900000000000000000000000000000000000000000000000000000000000000012",
        "nonce": "0x1b",
        "chainId": "0x106a"
      },
      "additionalContracts": [],
      "isFixedGasLimit": false
    },
    {
      "hash": null,
      "transactionType": "CALL",
      "contractName": "MainRouter",
      "contractAddress": "0x979ccba756d0af02390cbcd039d186935bd8c815",
      "function": "addAllowedToken(uint64,address,address,uint8)",
      "arguments": [
        "10344971235874465080",
        "0x5701139aE00FbB6060681803CD577d69053bB5b8",
        "0x3015aa11f5c2D4Bd0f891E708C8927961b38cE7D",
        "18"
      ],
      "transaction": {
        "from": "0x88f0807bf33b15bdf234fa2c92b469f665881bce",
        "to": "0x979ccba756d0af02390cbcd039d186935bd8c815",
        "gas": "0x35a78",
        "value": "0x0",
        "input": "0x40bf5da40000000000000000000000000000000000000000000000008f90b8876dee65380000000000000000000000005701139ae00fbb6060681803cd577d69053bb5b80000000000000000000000003015aa11f5c2d4bd0f891e708c8927961b38ce7d0000000000000000000000000000000000000000000000000000000000000012",
        "nonce": "0x1c",
        "chainId": "0x106a"
      },
      "additionalContracts": [],
      "isFixedGasLimit": false
    },
    {
      "hash": null,
      "transactionType": "CALL",
      "contractName": "MainRouter",
      "contractAddress": "0x979ccba756d0af02390cbcd039d186935bd8c815",
      "function": "addAllowedToken(uint64,address,address,uint8)",
      "arguments": [
        "10344971235874465080",
        "0x979CCbA756D0AF02390cBCd039D186935Bd8C815",
        "0x61Ec26aA57019C486B10502285c5A3D4A4750AD7",
        "18"
      ],
      "transaction": {
        "from": "0x88f0807bf33b15bdf234fa2c92b469f665881bce",
        "to": "0x979ccba756d0af02390cbcd039d186935bd8c815",
        "gas": "0x32b48",
        "value": "0x0",
        "input": "0x40bf5da40000000000000000000000000000000000000000000000008f90b8876dee6538000000000000000000000000979ccba756d0af02390cbcd039d186935bd8c81500000000000000000000000061ec26aa57019c486b10502285c5a3d4a4750ad70000000000000000000000000000000000000000000000000000000000000012",
        "nonce": "0x1d",
        "chainId": "0x106a"
      },
      "additionalContracts": [],
      "isFixedGasLimit": false
    },
    {
      "hash": null,
      "transactionType": "CALL",
      "contractName": "MainRouter",
      "contractAddress": "0x979ccba756d0af02390cbcd039d186935bd8c815",
      "function": "addAllowedToken(uint64,address,address,uint8)",
      "arguments": [
        "10344971235874465080",
        "0xf4c2fb6fe04c6f99B36Fa9f0391971c4E5247afD",
        "0x53f91dA33120F44893CB896b12a83551DEDb31c6",
        "18"
      ],
      "transaction": {
        "from": "0x88f0807bf33b15bdf234fa2c92b469f665881bce",
        "to": "0x979ccba756d0af02390cbcd039d186935bd8c815",
        "gas": "0x32b48",
        "value": "0x0",
        "input": "0x40bf5da40000000000000000000000000000000000000000000000008f90b8876dee6538000000000000000000000000f4c2fb6fe04c6f99b36fa9f0391971c4e5247afd00000000000000000000000053f91da33120f44893cb896b12a83551dedb31c60000000000000000000000000000000000000000000000000000000000000012",
        "nonce": "0x1e",
        "chainId": "0x106a"
      },
      "additionalContracts": [],
      "isFixedGasLimit": false
    },
    {
      "hash": null,
      "transactionType": "CALL",
      "contractName": "MainRouter",
      "contractAddress": "0x979ccba756d0af02390cbcd039d186935bd8c815",
      "function": "addAllowedToken(uint64,address,address,uint8)",
      "arguments": [
        "10344971235874465080",
        "0x93C6300dde76c66360E43B8e04bc7dcD35641944",
        "0xcacB7778Cba5C5526E6EBbA0A1aE74B4c310084B",
        "18"
      ],
      "transaction": {
        "from": "0x88f0807bf33b15bdf234fa2c92b469f665881bce",
        "to": "0x979ccba756d0af02390cbcd039d186935bd8c815",
        "gas": "0x32b48",
        "value": "0x0",
        "input": "0x40bf5da40000000000000000000000000000000000000000000000008f90b8876dee653800000000000000000000000093c6300dde76c66360e43b8e04bc7dcd35641944000000000000000000000000cacb7778cba5c5526e6ebba0a1ae74b4c310084b0000000000000000000000000000000000000000000000000000000000000012",
        "nonce": "0x1f",
        "chainId": "0x106a"
      },
      "additionalContracts": [],
      "isFixedGasLimit": false
    },
    {
      "hash": null,
      "transactionType": "CALL",
      "contractName": "MainRouter",
      "contractAddress": "0x979ccba756d0af02390cbcd039d186935bd8c815",
      "function": "addAllowedToken(uint64,address,address,uint8)",
      "arguments": [
        "10344971235874465080",
        "0xC27EdEfA70C53135EC229F1EcC7c2219adA0914c",
        "0x280eE98Cb396513DB0aBa22318d9B6F8AbbAa6D8",
        "18"
      ],
      "transaction": {
        "from": "0x88f0807bf33b15bdf234fa2c92b469f665881bce",
        "to": "0x979ccba756d0af02390cbcd039d186935bd8c815",
        "gas": "0x32b48",
        "value": "0x0",
        "input": "0x40bf5da40000000000000000000000000000000000000000000000008f90b8876dee6538000000000000000000000000c27edefa70c53135ec229f1ecc7c2219ada0914c000000000000000000000000280ee98cb396513db0aba22318d9b6f8abbaa6d80000000000000000000000000000000000000000000000000000000000000012",
        "nonce": "0x20",
        "chainId": "0x106a"
      },
      "additionalContracts": [],
      "isFixedGasLimit": false
    },
    {
      "hash": null,
      "transactionType": "CALL",
      "contractName": "MainRouter",
      "contractAddress": "0x979ccba756d0af02390cbcd039d186935bd8c815",
      "function": "addAllowedToken(uint64,address,address,uint8)",
      "arguments": [
        "10344971235874465080",
        "0xE4a9eE5CBe3EBA7760Fe1DA4566cE97ef1fA5674",
        "0xa6932B792e4b4FfA1e78e63671f42d0aff02eD73",
        "6"
      ],
      "transaction": {
        "from": "0x88f0807bf33b15bdf234fa2c92b469f665881bce",
        "to": "0x979ccba756d0af02390cbcd039d186935bd8c815",
        "gas": "0x32b48",
        "value": "0x0",
        "input": "0x40bf5da40000000000000000000000000000000000000000000000008f90b8876dee6538000000000000000000000000e4a9ee5cbe3eba7760fe1da4566ce97ef1fa5674000000000000000000000000a6932b792e4b4ffa1e78e63671f42d0aff02ed730000000000000000000000000000000000000000000000000000000000000006",
        "nonce": "0x21",
        "chainId": "0x106a"
      },
      "additionalContracts": [],
      "isFixedGasLimit": false
    },
    {
      "hash": null,
      "transactionType": "CALL",
      "contractName": "MainRouter",
      "contractAddress": "0x979ccba756d0af02390cbcd039d186935bd8c815",
      "function": "addAllowedToken(uint64,address,address,uint8)",
      "arguments": [
        "10344971235874465080",
        "0x4D90A816133C48C90Db46881c92a73E4E91A09CB",
        "0xF83696ca1b8a266163bE252bE2B94702D4929392",
        "6"
      ],
      "transaction": {
        "from": "0x88f0807bf33b15bdf234fa2c92b469f665881bce",
        "to": "0x979ccba756d0af02390cbcd039d186935bd8c815",
        "gas": "0x32b48",
        "value": "0x0",
        "input": "0x40bf5da40000000000000000000000000000000000000000000000008f90b8876dee65380000000000000000000000004d90a816133c48c90db46881c92a73e4e91a09cb000000000000000000000000f83696ca1b8a266163be252be2b94702d49293920000000000000000000000000000000000000000000000000000000000000006",
        "nonce": "0x22",
        "chainId": "0x106a"
      },
      "additionalContracts": [],
      "isFixedGasLimit": false
    },
    {
      "hash": null,
      "transactionType": "CALL",
      "contractName": "MainRouter",
      "contractAddress": "0x979ccba756d0af02390cbcd039d186935bd8c815",
      "function": "addAllowedToken(uint64,address,address,uint8)",
      "arguments": [
        "10344971235874465080",
        "0xEd270f83c58bc698bE7fCa3de4FF935069c6d431",
        "0xF83696ca1b8a266163bE252bE2B94702D4929392",
        "18"
      ],
      "transaction": {
        "from": "0x88f0807bf33b15bdf234fa2c92b469f665881bce",
        "to": "0x979ccba756d0af02390cbcd039d186935bd8c815",
        "gas": "0x32b48",
        "value": "0x0",
        "input": "0x40bf5da40000000000000000000000000000000000000000000000008f90b8876dee6538000000000000000000000000ed270f83c58bc698be7fca3de4ff935069c6d431000000000000000000000000f83696ca1b8a266163be252be2b94702d49293920000000000000000000000000000000000000000000000000000000000000012",
        "nonce": "0x23",
        "chainId": "0x106a"
      },
      "additionalContracts": [],
      "isFixedGasLimit": false
    },
    {
      "hash": null,
      "transactionType": "CALL",
      "contractName": "MainRouter",
      "contractAddress": "0x979ccba756d0af02390cbcd039d186935bd8c815",
      "function": "addAllowedToken(uint64,address,address,uint8)",
      "arguments": [
        "5224473277236331295",
        "0x93C6300dde76c66360E43B8e04bc7dcD35641944",
        "0x3015aa11f5c2D4Bd0f891E708C8927961b38cE7D",
        "18"
      ],
      "transaction": {
        "from": "0x88f0807bf33b15bdf234fa2c92b469f665881bce",
        "to": "0x979ccba756d0af02390cbcd039d186935bd8c815",
        "gas": "0x35a78",
        "value": "0x0",
        "input": "0x40bf5da400000000000000000000000000000000000000000000000048810ec3e431431f00000000000000000000000093c6300dde76c66360e43b8e04bc7dcd356419440000000000000000000000003015aa11f5c2d4bd0f891e708c8927961b38ce7d0000000000000000000000000000000000000000000000000000000000000012",
        "nonce": "0x24",
        "chainId": "0x106a"
      },
      "additionalContracts": [],
      "isFixedGasLimit": false
    },
    {
      "hash": null,
      "transactionType": "CALL",
      "contractName": "MainRouter",
      "contractAddress": "0x979ccba756d0af02390cbcd039d186935bd8c815",
      "function": "addAllowedToken(uint64,address,address,uint8)",
      "arguments": [
        "5224473277236331295",
        "0xC27EdEfA70C53135EC229F1EcC7c2219adA0914c",
        "0x61Ec26aA57019C486B10502285c5A3D4A4750AD7",
        "18"
      ],
      "transaction": {
        "from": "0x88f0807bf33b15bdf234fa2c92b469f665881bce",
        "to": "0x979ccba756d0af02390cbcd039d186935bd8c815",
        "gas": "0x32b48",
        "value": "0x0",
        "input": "0x40bf5da400000000000000000000000000000000000000000000000048810ec3e431431f000000000000000000000000c27edefa70c53135ec229f1ecc7c2219ada0914c00000000000000000000000061ec26aa57019c486b10502285c5a3d4a4750ad70000000000000000000000000000000000000000000000000000000000000012",
        "nonce": "0x25",
        "chainId": "0x106a"
      },
      "additionalContracts": [],
      "isFixedGasLimit": false
    },
    {
      "hash": null,
      "transactionType": "CALL",
      "contractName": "MainRouter",
      "contractAddress": "0x979ccba756d0af02390cbcd039d186935bd8c815",
      "function": "addAllowedToken(uint64,address,address,uint8)",
      "arguments": [
        "5224473277236331295",
        "0xE4a9eE5CBe3EBA7760Fe1DA4566cE97ef1fA5674",
        "0x53f91dA33120F44893CB896b12a83551DEDb31c6",
        "18"
      ],
      "transaction": {
        "from": "0x88f0807bf33b15bdf234fa2c92b469f665881bce",
        "to": "0x979ccba756d0af02390cbcd039d186935bd8c815",
        "gas": "0x32b48",
        "value": "0x0",
        "input": "0x40bf5da400000000000000000000000000000000000000000000000048810ec3e431431f000000000000000000000000e4a9ee5cbe3eba7760fe1da4566ce97ef1fa567400000000000000000000000053f91da33120f44893cb896b12a83551dedb31c60000000000000000000000000000000000000000000000000000000000000012",
        "nonce": "0x26",
        "chainId": "0x106a"
      },
      "additionalContracts": [],
      "isFixedGasLimit": false
    },
    {
      "hash": null,
      "transactionType": "CALL",
      "contractName": "MainRouter",
      "contractAddress": "0x979ccba756d0af02390cbcd039d186935bd8c815",
      "function": "addAllowedToken(uint64,address,address,uint8)",
      "arguments": [
        "5224473277236331295",
        "0x4D90A816133C48C90Db46881c92a73E4E91A09CB",
        "0x8907a105E562C9F3d7F2ed46539Ae36D87a15590",
        "18"
      ],
      "transaction": {
        "from": "0x88f0807bf33b15bdf234fa2c92b469f665881bce",
        "to": "0x979ccba756d0af02390cbcd039d186935bd8c815",
        "gas": "0x32b48",
        "value": "0x0",
        "input": "0x40bf5da400000000000000000000000000000000000000000000000048810ec3e431431f0000000000000000000000004d90a816133c48c90db46881c92a73e4e91a09cb0000000000000000000000008907a105e562c9f3d7f2ed46539ae36d87a155900000000000000000000000000000000000000000000000000000000000000012",
        "nonce": "0x27",
        "chainId": "0x106a"
      },
      "additionalContracts": [],
      "isFixedGasLimit": false
    },
    {
      "hash": null,
      "transactionType": "CALL",
      "contractName": "MainRouter",
      "contractAddress": "0x979ccba756d0af02390cbcd039d186935bd8c815",
      "function": "addAllowedToken(uint64,address,address,uint8)",
      "arguments": [
        "5224473277236331295",
        "0xEd270f83c58bc698bE7fCa3de4FF935069c6d431",
        "0x280eE98Cb396513DB0aBa22318d9B6F8AbbAa6D8",
        "18"
      ],
      "transaction": {
        "from": "0x88f0807bf33b15bdf234fa2c92b469f665881bce",
        "to": "0x979ccba756d0af02390cbcd039d186935bd8c815",
        "gas": "0x32b48",
        "value": "0x0",
        "input": "0x40bf5da400000000000000000000000000000000000000000000000048810ec3e431431f000000000000000000000000ed270f83c58bc698be7fca3de4ff935069c6d431000000000000000000000000280ee98cb396513db0aba22318d9b6f8abbaa6d80000000000000000000000000000000000000000000000000000000000000012",
        "nonce": "0x28",
        "chainId": "0x106a"
      },
      "additionalContracts": [],
      "isFixedGasLimit": false
    },
    {
      "hash": null,
      "transactionType": "CALL",
      "contractName": "MainRouter",
      "contractAddress": "0x979ccba756d0af02390cbcd039d186935bd8c815",
      "function": "addAllowedToken(uint64,address,address,uint8)",
      "arguments": [
        "5224473277236331295",
        "0xdAa065d31736606d5bfa059EE528624eE379a73d",
        "0xa6932B792e4b4FfA1e78e63671f42d0aff02eD73",
        "6"
      ],
      "transaction": {
        "from": "0x88f0807bf33b15bdf234fa2c92b469f665881bce",
        "to": "0x979ccba756d0af02390cbcd039d186935bd8c815",
        "gas": "0x32b48",
        "value": "0x0",
        "input": "0x40bf5da400000000000000000000000000000000000000000000000048810ec3e431431f000000000000000000000000daa065d31736606d5bfa059ee528624ee379a73d000000000000000000000000a6932b792e4b4ffa1e78e63671f42d0aff02ed730000000000000000000000000000000000000000000000000000000000000006",
        "nonce": "0x29",
        "chainId": "0x106a"
      },
      "additionalContracts": [],
      "isFixedGasLimit": false
    },
    {
      "hash": null,
      "transactionType": "CALL",
      "contractName": "MainRouter",
      "contractAddress": "0x979ccba756d0af02390cbcd039d186935bd8c815",
      "function": "addAllowedToken(uint64,address,address,uint8)",
      "arguments": [
        "5224473277236331295",
        "0xD898bc60Fc9d5837D86DE609100Af6Ea9825C035",
        "0xF83696ca1b8a266163bE252bE2B94702D4929392",
        "6"
      ],
      "transaction": {
        "from": "0x88f0807bf33b15bdf234fa2c92b469f665881bce",
        "to": "0x979ccba756d0af02390cbcd039d186935bd8c815",
        "gas": "0x32b48",
        "value": "0x0",
        "input": "0x40bf5da400000000000000000000000000000000000000000000000048810ec3e431431f000000000000000000000000d898bc60fc9d5837d86de609100af6ea9825c035000000000000000000000000f83696ca1b8a266163be252be2b94702d49293920000000000000000000000000000000000000000000000000000000000000006",
        "nonce": "0x2a",
        "chainId": "0x106a"
      },
      "additionalContracts": [],
      "isFixedGasLimit": false
    },
    {
      "hash": null,
      "transactionType": "CALL",
      "contractName": "MainRouter",
      "contractAddress": "0x979ccba756d0af02390cbcd039d186935bd8c815",
      "function": "addAllowedToken(uint64,address,address,uint8)",
      "arguments": [
        "5224473277236331295",
        "0x9b5328599cEfEcd181b237f7138b298A9428692A",
        "0x8907a105E562C9F3d7F2ed46539Ae36D87a15590",
        "18"
      ],
      "transaction": {
        "from": "0x88f0807bf33b15bdf234fa2c92b469f665881bce",
        "to": "0x979ccba756d0af02390cbcd039d186935bd8c815",
        "gas": "0x32b48",
        "value": "0x0",
        "input": "0x40bf5da400000000000000000000000000000000000000000000000048810ec3e431431f0000000000000000000000009b5328599cefecd181b237f7138b298a9428692a0000000000000000000000008907a105e562c9f3d7f2ed46539ae36d87a155900000000000000000000000000000000000000000000000000000000000000012",
        "nonce": "0x2b",
        "chainId": "0x106a"
      },
      "additionalContracts": [],
      "isFixedGasLimit": false
    },
    {
      "hash": null,
      "transactionType": "CALL",
      "contractName": "MainRouter",
      "contractAddress": "0x979ccba756d0af02390cbcd039d186935bd8c815",
      "function": "addAllowedToken(uint64,address,address,uint8)",
      "arguments": [
        "3478487238524512106",
        "0xF6905F1E4ad86f8C3a1Ebfca3E04a9e4d2adDD0D",
        "0x3015aa11f5c2D4Bd0f891E708C8927961b38cE7D",
        "18"
      ],
      "transaction": {
        "from": "0x88f0807bf33b15bdf234fa2c92b469f665881bce",
        "to": "0x979ccba756d0af02390cbcd039d186935bd8c815",
        "gas": "0x35a78",
        "value": "0x0",
        "input": "0x40bf5da4000000000000000000000000000000000000000000000000304611b6affba76a000000000000000000000000f6905f1e4ad86f8c3a1ebfca3e04a9e4d2addd0d0000000000000000000000003015aa11f5c2d4bd0f891e708c8927961b38ce7d0000000000000000000000000000000000000000000000000000000000000012",
        "nonce": "0x2c",
        "chainId": "0x106a"
      },
      "additionalContracts": [],
      "isFixedGasLimit": false
    },
    {
      "hash": null,
      "transactionType": "CALL",
      "contractName": "MainRouter",
      "contractAddress": "0x979ccba756d0af02390cbcd039d186935bd8c815",
      "function": "addAllowedToken(uint64,address,address,uint8)",
      "arguments": [
        "3478487238524512106",
        "0x9a24BD7833859d2364EaD5A4aF4b16799693DF12",
        "0x61Ec26aA57019C486B10502285c5A3D4A4750AD7",
        "18"
      ],
      "transaction": {
        "from": "0x88f0807bf33b15bdf234fa2c92b469f665881bce",
        "to": "0x979ccba756d0af02390cbcd039d186935bd8c815",
        "gas": "0x32b48",
        "value": "0x0",
        "input": "0x40bf5da4000000000000000000000000000000000000000000000000304611b6affba76a0000000000000000000000009a24bd7833859d2364ead5a4af4b16799693df1200000000000000000000000061ec26aa57019c486b10502285c5a3d4a4750ad70000000000000000000000000000000000000000000000000000000000000012",
        "nonce": "0x2d",
        "chainId": "0x106a"
      },
      "additionalContracts": [],
      "isFixedGasLimit": false
    },
    {
      "hash": null,
      "transactionType": "CALL",
      "contractName": "MainRouter",
      "contractAddress": "0x979ccba756d0af02390cbcd039d186935bd8c815",
      "function": "addAllowedToken(uint64,address,address,uint8)",
      "arguments": [
        "3478487238524512106",
        "0x244ec7F5753b2Fc10d0C2bAaB1AB55850E73a3AB",
        "0x53f91dA33120F44893CB896b12a83551DEDb31c6",
        "18"
      ],
      "transaction": {
        "from": "0x88f0807bf33b15bdf234fa2c92b469f665881bce",
        "to": "0x979ccba756d0af02390cbcd039d186935bd8c815",
        "gas": "0x32b48",
        "value": "0x0",
        "input": "0x40bf5da4000000000000000000000000000000000000000000000000304611b6affba76a000000000000000000000000244ec7f5753b2fc10d0c2baab1ab55850e73a3ab00000000000000000000000053f91da33120f44893cb896b12a83551dedb31c60000000000000000000000000000000000000000000000000000000000000012",
        "nonce": "0x2e",
        "chainId": "0x106a"
      },
      "additionalContracts": [],
      "isFixedGasLimit": false
    },
    {
      "hash": null,
      "transactionType": "CALL",
      "contractName": "MainRouter",
      "contractAddress": "0x979ccba756d0af02390cbcd039d186935bd8c815",
      "function": "addAllowedToken(uint64,address,address,uint8)",
      "arguments": [
        "3478487238524512106",
        "0xe257e2a67407144C918acaD5e11c2582F77c0B1a",
        "0xcacB7778Cba5C5526E6EBbA0A1aE74B4c310084B",
        "18"
      ],
      "transaction": {
        "from": "0x88f0807bf33b15bdf234fa2c92b469f665881bce",
        "to": "0x979ccba756d0af02390cbcd039d186935bd8c815",
        "gas": "0x32b48",
        "value": "0x0",
        "input": "0x40bf5da4000000000000000000000000000000000000000000000000304611b6affba76a000000000000000000000000e257e2a67407144c918acad5e11c2582f77c0b1a000000000000000000000000cacb7778cba5c5526e6ebba0a1ae74b4c310084b0000000000000000000000000000000000000000000000000000000000000012",
        "nonce": "0x2f",
        "chainId": "0x106a"
      },
      "additionalContracts": [],
      "isFixedGasLimit": false
    },
    {
      "hash": null,
      "transactionType": "CALL",
      "contractName": "MainRouter",
      "contractAddress": "0x979ccba756d0af02390cbcd039d186935bd8c815",
      "function": "addAllowedToken(uint64,address,address,uint8)",
      "arguments": [
        "3478487238524512106",
        "0x32B8F75d2AC926a0a906F24df3e8Fe2bA17Bd80a",
        "0x280eE98Cb396513DB0aBa22318d9B6F8AbbAa6D8",
        "18"
      ],
      "transaction": {
        "from": "0x88f0807bf33b15bdf234fa2c92b469f665881bce",
        "to": "0x979ccba756d0af02390cbcd039d186935bd8c815",
        "gas": "0x32b48",
        "value": "0x0",
        "input": "0x40bf5da4000000000000000000000000000000000000000000000000304611b6affba76a00000000000000000000000032b8f75d2ac926a0a906f24df3e8fe2ba17bd80a000000000000000000000000280ee98cb396513db0aba22318d9b6f8abbaa6d80000000000000000000000000000000000000000000000000000000000000012",
        "nonce": "0x30",
        "chainId": "0x106a"
      },
      "additionalContracts": [],
      "isFixedGasLimit": false
    },
    {
      "hash": null,
      "transactionType": "CALL",
      "contractName": "MainRouter",
      "contractAddress": "0x979ccba756d0af02390cbcd039d186935bd8c815",
      "function": "addAllowedToken(uint64,address,address,uint8)",
      "arguments": [
        "3478487238524512106",
        "0xDFf5Ba9FCff83cE455e45De7572B6259b0E7D7dE",
        "0xa6932B792e4b4FfA1e78e63671f42d0aff02eD73",
        "6"
      ],
      "transaction": {
        "from": "0x88f0807bf33b15bdf234fa2c92b469f665881bce",
        "to": "0x979ccba756d0af02390cbcd039d186935bd8c815",
        "gas": "0x32b48",
        "value": "0x0",
        "input": "0x40bf5da4000000000000000000000000000000000000000000000000304611b6affba76a000000000000000000000000dff5ba9fcff83ce455e45de7572b6259b0e7d7de000000000000000000000000a6932b792e4b4ffa1e78e63671f42d0aff02ed730000000000000000000000000000000000000000000000000000000000000006",
        "nonce": "0x31",
        "chainId": "0x106a"
      },
      "additionalContracts": [],
      "isFixedGasLimit": false
    },
    {
      "hash": null,
      "transactionType": "CALL",
      "contractName": "MainRouter",
      "contractAddress": "0x979ccba756d0af02390cbcd039d186935bd8c815",
      "function": "addAllowedToken(uint64,address,address,uint8)",
      "arguments": [
        "3478487238524512106",
        "0x98EeB02BC20c5e7079983e8F0D0D839dFc8F74fA",
        "0xF83696ca1b8a266163bE252bE2B94702D4929392",
        "6"
      ],
      "transaction": {
        "from": "0x88f0807bf33b15bdf234fa2c92b469f665881bce",
        "to": "0x979ccba756d0af02390cbcd039d186935bd8c815",
        "gas": "0x32b48",
        "value": "0x0",
        "input": "0x40bf5da4000000000000000000000000000000000000000000000000304611b6affba76a00000000000000000000000098eeb02bc20c5e7079983e8f0d0d839dfc8f74fa000000000000000000000000f83696ca1b8a266163be252be2b94702d49293920000000000000000000000000000000000000000000000000000000000000006",
        "nonce": "0x32",
        "chainId": "0x106a"
      },
      "additionalContracts": [],
      "isFixedGasLimit": false
    },
    {
      "hash": null,
      "transactionType": "CALL",
      "contractName": "MainRouter",
      "contractAddress": "0x979ccba756d0af02390cbcd039d186935bd8c815",
      "function": "addAllowedToken(uint64,address,address,uint8)",
      "arguments": [
        "3478487238524512106",
        "0x75b86D7B224Fd88f785BB5FaC5e261D9EFde3047",
        "0x8907a105E562C9F3d7F2ed46539Ae36D87a15590",
        "18"
      ],
      "transaction": {
        "from": "0x88f0807bf33b15bdf234fa2c92b469f665881bce",
        "to": "0x979ccba756d0af02390cbcd039d186935bd8c815",
        "gas": "0x32b48",
        "value": "0x0",
        "input": "0x40bf5da4000000000000000000000000000000000000000000000000304611b6affba76a00000000000000000000000075b86d7b224fd88f785bb5fac5e261d9efde30470000000000000000000000008907a105e562c9f3d7f2ed46539ae36d87a155900000000000000000000000000000000000000000000000000000000000000012",
        "nonce": "0x33",
        "chainId": "0x106a"
      },
      "additionalContracts": [],
      "isFixedGasLimit": false
    },
    {
      "hash": null,
      "transactionType": "CALL",
      "contractName": "MainRouter",
      "contractAddress": "0x979ccba756d0af02390cbcd039d186935bd8c815",
      "function": "setAllowedDestinationChain(uint64,bool)",
      "arguments": [
        "14767482510784806043",
        "true"
      ],
      "transaction": {
        "from": "0x88f0807bf33b15bdf234fa2c92b469f665881bce",
        "to": "0x979ccba756d0af02390cbcd039d186935bd8c815",
        "gas": "0x2627f",
        "value": "0x0",
        "input": "0x1572823c000000000000000000000000000000000000000000000000ccf0a31a221f3c9b0000000000000000000000000000000000000000000000000000000000000001",
        "nonce": "0x34",
        "chainId": "0x106a"
      },
      "additionalContracts": [],
      "isFixedGasLimit": false
    },
    {
      "hash": null,
      "transactionType": "CALL",
      "contractName": "MainRouter",
      "contractAddress": "0x979ccba756d0af02390cbcd039d186935bd8c815",
      "function": "setAllowedDestinationChain(uint64,bool)",
      "arguments": [
        "16015286601757825753",
        "true"
      ],
      "transaction": {
        "from": "0x88f0807bf33b15bdf234fa2c92b469f665881bce",
        "to": "0x979ccba756d0af02390cbcd039d186935bd8c815",
        "gas": "0x224b8",
        "value": "0x0",
        "input": "0x1572823c000000000000000000000000000000000000000000000000de41ba4fc9d91ad90000000000000000000000000000000000000000000000000000000000000001",
        "nonce": "0x35",
        "chainId": "0x106a"
      },
      "additionalContracts": [],
      "isFixedGasLimit": false
    },
    {
      "hash": null,
      "transactionType": "CALL",
      "contractName": "MainRouter",
      "contractAddress": "0x979ccba756d0af02390cbcd039d186935bd8c815",
      "function": "setAllowedDestinationChain(uint64,bool)",
      "arguments": [
        "16281711391670634445",
        "true"
      ],
      "transaction": {
        "from": "0x88f0807bf33b15bdf234fa2c92b469f665881bce",
        "to": "0x979ccba756d0af02390cbcd039d186935bd8c815",
        "gas": "0x224b8",
        "value": "0x0",
        "input": "0x1572823c000000000000000000000000000000000000000000000000e1f4423f1bf587cd0000000000000000000000000000000000000000000000000000000000000001",
        "nonce": "0x36",
        "chainId": "0x106a"
      },
      "additionalContracts": [],
      "isFixedGasLimit": false
    },
    {
      "hash": null,
      "transactionType": "CALL",
      "contractName": "MainRouter",
      "contractAddress": "0x979ccba756d0af02390cbcd039d186935bd8c815",
      "function": "setAllowedDestinationChain(uint64,bool)",
      "arguments": [
        "10344971235874465080",
        "true"
      ],
      "transaction": {
        "from": "0x88f0807bf33b15bdf234fa2c92b469f665881bce",
        "to": "0x979ccba756d0af02390cbcd039d186935bd8c815",
        "gas": "0x224b8",
        "value": "0x0",
        "input": "0x1572823c0000000000000000000000000000000000000000000000008f90b8876dee65380000000000000000000000000000000000000000000000000000000000000001",
        "nonce": "0x37",
        "chainId": "0x106a"
      },
      "additionalContracts": [],
      "isFixedGasLimit": false
    },
    {
      "hash": null,
      "transactionType": "CALL",
      "contractName": "MainRouter",
      "contractAddress": "0x979ccba756d0af02390cbcd039d186935bd8c815",
      "function": "setAllowedDestinationChain(uint64,bool)",
      "arguments": [
        "5224473277236331295",
        "true"
      ],
      "transaction": {
        "from": "0x88f0807bf33b15bdf234fa2c92b469f665881bce",
        "to": "0x979ccba756d0af02390cbcd039d186935bd8c815",
        "gas": "0x224b8",
        "value": "0x0",
        "input": "0x1572823c00000000000000000000000000000000000000000000000048810ec3e431431f0000000000000000000000000000000000000000000000000000000000000001",
        "nonce": "0x38",
        "chainId": "0x106a"
      },
      "additionalContracts": [],
      "isFixedGasLimit": false
    },
    {
      "hash": null,
      "transactionType": "CALL",
      "contractName": "MainRouter",
      "contractAddress": "0x979ccba756d0af02390cbcd039d186935bd8c815",
      "function": "setAllowedDestinationChain(uint64,bool)",
      "arguments": [
        "3478487238524512106",
        "true"
      ],
      "transaction": {
        "from": "0x88f0807bf33b15bdf234fa2c92b469f665881bce",
        "to": "0x979ccba756d0af02390cbcd039d186935bd8c815",
        "gas": "0x224b8",
        "value": "0x0",
        "input": "0x1572823c000000000000000000000000000000000000000000000000304611b6affba76a0000000000000000000000000000000000000000000000000000000000000001",
        "nonce": "0x39",
        "chainId": "0x106a"
      },
      "additionalContracts": [],
      "isFixedGasLimit": false
    },
    {
      "hash": null,
      "transactionType": "CALL",
      "contractName": "MainRouter",
      "contractAddress": "0x979ccba756d0af02390cbcd039d186935bd8c815",
      "function": "setAllowedSourceChain(uint64,bool)",
      "arguments": [
        "14767482510784806043",
        "true"
      ],
      "transaction": {
        "from": "0x88f0807bf33b15bdf234fa2c92b469f665881bce",
        "to": "0x979ccba756d0af02390cbcd039d186935bd8c815",
        "gas": "0xfa29",
        "value": "0x0",
        "input": "0x5d9a2c48000000000000000000000000000000000000000000000000ccf0a31a221f3c9b0000000000000000000000000000000000000000000000000000000000000001",
        "nonce": "0x3a",
        "chainId": "0x106a"
      },
      "additionalContracts": [],
      "isFixedGasLimit": false
    },
    {
      "hash": null,
      "transactionType": "CALL",
      "contractName": "MainRouter",
      "contractAddress": "0x979ccba756d0af02390cbcd039d186935bd8c815",
      "function": "setAllowedSourceChain(uint64,bool)",
      "arguments": [
        "16015286601757825753",
        "true"
      ],
      "transaction": {
        "from": "0x88f0807bf33b15bdf234fa2c92b469f665881bce",
        "to": "0x979ccba756d0af02390cbcd039d186935bd8c815",
        "gas": "0xfa29",
        "value": "0x0",
        "input": "0x5d9a2c48000000000000000000000000000000000000000000000000de41ba4fc9d91ad90000000000000000000000000000000000000000000000000000000000000001",
        "nonce": "0x3b",
        "chainId": "0x106a"
      },
      "additionalContracts": [],
      "isFixedGasLimit": false
    },
    {
      "hash": null,
      "transactionType": "CALL",
      "contractName": "MainRouter",
      "contractAddress": "0x979ccba756d0af02390cbcd039d186935bd8c815",
      "function": "setAllowedSourceChain(uint64,bool)",
      "arguments": [
        "16281711391670634445",
        "true"
      ],
      "transaction": {
        "from": "0x88f0807bf33b15bdf234fa2c92b469f665881bce",
        "to": "0x979ccba756d0af02390cbcd039d186935bd8c815",
        "gas": "0xfa29",
        "value": "0x0",
        "input": "0x5d9a2c48000000000000000000000000000000000000000000000000e1f4423f1bf587cd0000000000000000000000000000000000000000000000000000000000000001",
        "nonce": "0x3c",
        "chainId": "0x106a"
      },
      "additionalContracts": [],
      "isFixedGasLimit": false
    },
    {
      "hash": null,
      "transactionType": "CALL",
      "contractName": "MainRouter",
      "contractAddress": "0x979ccba756d0af02390cbcd039d186935bd8c815",
      "function": "setAllowedSourceChain(uint64,bool)",
      "arguments": [
        "10344971235874465080",
        "true"
      ],
      "transaction": {
        "from": "0x88f0807bf33b15bdf234fa2c92b469f665881bce",
        "to": "0x979ccba756d0af02390cbcd039d186935bd8c815",
        "gas": "0xfa29",
        "value": "0x0",
        "input": "0x5d9a2c480000000000000000000000000000000000000000000000008f90b8876dee65380000000000000000000000000000000000000000000000000000000000000001",
        "nonce": "0x3d",
        "chainId": "0x106a"
      },
      "additionalContracts": [],
      "isFixedGasLimit": false
    },
    {
      "hash": null,
      "transactionType": "CALL",
      "contractName": "MainRouter",
      "contractAddress": "0x979ccba756d0af02390cbcd039d186935bd8c815",
      "function": "setAllowedSourceChain(uint64,bool)",
      "arguments": [
        "5224473277236331295",
        "true"
      ],
      "transaction": {
        "from": "0x88f0807bf33b15bdf234fa2c92b469f665881bce",
        "to": "0x979ccba756d0af02390cbcd039d186935bd8c815",
        "gas": "0xfa29",
        "value": "0x0",
        "input": "0x5d9a2c4800000000000000000000000000000000000000000000000048810ec3e431431f0000000000000000000000000000000000000000000000000000000000000001",
        "nonce": "0x3e",
        "chainId": "0x106a"
      },
      "additionalContracts": [],
      "isFixedGasLimit": false
    },
    {
      "hash": null,
      "transactionType": "CALL",
      "contractName": "MainRouter",
      "contractAddress": "0x979ccba756d0af02390cbcd039d186935bd8c815",
      "function": "setAllowedSourceChain(uint64,bool)",
      "arguments": [
        "3478487238524512106",
        "true"
      ],
      "transaction": {
        "from": "0x88f0807bf33b15bdf234fa2c92b469f665881bce",
        "to": "0x979ccba756d0af02390cbcd039d186935bd8c815",
        "gas": "0xfa29",
        "value": "0x0",
        "input": "0x5d9a2c48000000000000000000000000000000000000000000000000304611b6affba76a0000000000000000000000000000000000000000000000000000000000000001",
        "nonce": "0x3f",
        "chainId": "0x106a"
      },
      "additionalContracts": [],
      "isFixedGasLimit": false
    }
  ],
  "receipts": [],
  "libraries": [
    "src/library/OracleLib.sol:OracleLib:0x7c8979A0aB1DE970EB24a4B983024A7501E78BC3"
  ],
  "pending": [],
  "returns": {
    "0": {
      "internal_type": "contract MainRouter",
      "value": "0x979CCbA756D0AF02390cBCd039D186935Bd8C815"
    }
  },
  "timestamp": 1731764218,
  "chain": 4202,
  "commit": "84edfe5"
}